:020000040800F2
:1000000000200020D5010008DD010008E101000802
:1000100000000000000000000000000000000000E0
:10002000000000000000000000000000E5010008E2
:100030000000000000000000E90100088529000818
:10004000F1010008F1010008F1010008F1010008C8
:10005000F1010008F1010008F1010008F1010008B8
:10006000F1010008F1010008F1010008F1010008A8
:10007000F1010008F1010008F1010008F101000898
:10008000F1010008F101000800000000F101000882
:10009000F1010008F1010008F1010008F101000878
:1000A000F1010008F1010008C537000875390008A2
:1000B0003D39000800000000F101000800000000C8
:1000C0005FF808F130B583B0314B324A1360324AE1
:1000D0001360324B3249002201E01A6004338B4234
:1000E000FBD32C4B1B68002B03D12B4B1B68002B25
:1000F00000D0FEE7264B2B4A13602B4A13602B4B94
:100100002B4A2C4903E010681860043304328B42F8
:10011000F9D3244B1A68284B9A4204D1224B1A680F
:100120001B689A4200D0FEE701F068FA01A8694610
:1001300001F058FA214B224DED1AAD10002404E0D5
:10014000A3001E4A9B5898470134A542F8DC1D4B7A
:100150001D4DED1AAD10002404E0A30019481B58F2
:1001600098470134A542F8DC0198009903F000F9A2
:10017000051C164B164CE41AA41004E0013CA30025
:10018000124A9B589847002CF8DC281C01F002FA10
:10019000BABADECA8C000020880D00208C00002036
:1001A0008C0D0020000000208800002000000020AE
:1001B000D44000088C00002078563412F401000866
:1001C000F4010008F4010008F8010008F801000833
:1001D000F801000808B5FFF775FFC046FEE7C04606
:1001E000FEE7C046FEE7C046FEE7C046FEE7C04663
:0401F000FEE7C04620
:0401F4009935000831
:1001F80010B5041C0A4B984203D00A48852101F027
:10020800F5F9074B9C4209D18024A400201C012148
:1002180000F0B0FE201C002100F0ACFE10BDC0466E
:1002280000240140103D000838B5051C0C1C314B5A
:10023800984203D03048A12101F0D8F92368002B57
:1002480009D0082B07D0102B05D0182B03D02A482B
:10025800A22101F0CBF92379012B03D92648A32148
:1002680001F0C4F9A368002B0FD08022D20093427A
:100278000BD080221201934207D0C0221201934270
:1002880003D01D48A42101F0B1F9E368002B0DD07B
:10029800402B0BD0802B09D0C02B07D080225200D6
:1002A800934203D01448A52101F0A0F92369002B3B
:1002B80005D0202B03D01048A62101F097F96369D7
:1002C800002B05D0042B03D00B48A72101F08EF991
:1002D800EA680A4B1A4023795B0321680B43A1683B
:1002E8000B43E1680B4321690B4361690B431343DB
:1002F800EB6038BD00240140103D000803D2FFFF29
:100308000023036003718360C36003614361704726
:1003180038B5041C0D1C0C4B984203D00B48E9213E
:1003280001F064F9012D03D90848EA2101F05EF9CA
:10033800002D04D0A26801231343A36003E0A26840
:1003480002231343A36038BD00240140103D000878
:1003580070B5041C0D1C161C0D4B984203D00D489B
:100368000D4901F043F9002D01D0EB0C04D00948E8
:10037800B421890001F03AF9072E03D90548074945
:1003880001F034F9A36A1D43A562666170BDC046D9
:1003980000240140103D0008CF020000D1020000F7
:1003A80010B5041C0E4B984203D00E480E4901F0BC
:1003B8001DF9A26880231B061343A3600023F021C4
:1003C8000902A268D20FD20701338B4201D0002A5A
:1003D800F7D1A368002B01DB206C00E0002010BDE2
:1003E80000240140103D00083D03000010B5041C26
:1003F800054B984203D00548054901F0F7F8A26873
:1004080004231343A36010BD00240140103D0008DD
:100418006F03000038B5041C0D1C0D4B984204D026
:100428000C48EA21890001F0E1F8012D03D90948B7
:10043800094901F0DBF8002D04D0E26801231343D9
:10044800E36003E0E36801229343E36038BDC046FC
:1004580000240140103D0008A903000038B5041C21
:100468000D1C074B984203D00648074901F0BEF817
:10047800E36802229343E360E3681D43E56038BD07
:1004880000240140103D0008C303000038B5051CD6
:100498000C1C194B984203D01848194901F0A6F8CA
:1004A800631E012B1CD9042C1AD0082C18D0802CC0
:1004B80016D0102C14D0134B9C4211D0124B9C42D6
:1004C8000ED0124B9C420BD0114B9C4208D081237A
:1004D8001B069C4204D009488B21C90001F086F80C
:1004E800E30103D5A8680B4B184000E028680440D6
:1004F800201C441EA04138BD00240140103D0008C6
:10050800570400000100000102000001040000017E
:1005180010000001FFFFFFFE10B5041C324B98428B
:1005280015D0324B984212D0314B98420FD0314BF4
:1005380098420CD0304B984209D0304B984206D0A4
:100548002F4B984203D02F48842101F04FF822689E
:100558002D4B13402360002323606360A360E36096
:10056800214B9C4205D1294B59680F220A435A60F6
:1005780039E01E4B9C4205D1244B5968F0220A43AE
:100588005A6030E01A4B9C4206D1204B5968F02241
:1005980012010A435A6026E0164B9C4206D11B4BB7
:1005A8005968F02212020A435A601CE0124B9C421E
:1005B80006D1164B5968F02212030A435A6012E01A
:1005C8000E4B9C4206D1114B5968F02212040A4383
:1005D8005A6008E00A4B9C4205D10C4B5968F0223E
:1005E80012050A435A6010BD080002401C00024070
:1005F8003000024044000240580002406C000240B3
:1006080080000240403D0008FEFF0000000002405C
:1006180038B5051C0C1C4E4B984215D04D4B9842D2
:1006280012D04D4B98420FD04C4B98420CD04C4BAB
:10063800984209D04B4B984206D04B4B984203D076
:100648004A48CC2100F0D2FFA368002B05D0102B1C
:1006580003D04648CD2100F0C9FFE268013A444B77
:100668009A4203D94148CE2100F0C0FF2369002BEC
:1006780005D0402B03D03D48CF2100F0B7FF636978
:10068800002B05D0802B03D03848D02100F0AEFFD6
:10069800A369002B0BD080225200934207D08022FE
:1006A8009200934203D03148D12100F09FFFE369C3
:1006B800002B0BD08022D200934207D08022120157
:1006C800934203D02948D22100F090FF236A002BDF
:1006D80005D0202B03D02548D32100F087FF636A7B
:1006E800C022920193420DD080229201934209D0F8
:1006F80080225201934205D0002B03D01B48D421FD
:1007080000F074FFA36A002B07D08022D201934225
:1007180003D01648D52100F069FF2A68154B1A4006
:10072800A368216A0B4321690B4361690B43A169E3
:100738000B43E1690B43616A0B43A16A0B43134303
:100748002B60E3686B602168A9606368EB6038BD63
:10075800080002401C0002403000024044000240F1
:10076800580002406C00024080000240403D0008F2
:10077800FEFF00000F80FFFF0023036043608360DB
:10078800C360036143618361C3610362436283623F
:100798007047C04638B5041C0D1C164B984216D03D
:1007A800154B984213D0154B984210D0144B9842D1
:1007B8000DD0144B98420AD0134B984207D0134BD4
:1007C800984204D012482A21FF3100F00FFF012D72
:1007D80004D90F489521490000F008FF002D04D0E6
:1007E800226801231343236003E02268094B134066
:1007F800236038BD080002401C000240300002405F
:1008080044000240580002406C0002408000024050
:10081800403D0008FEFF000010B5041C431E012BDC
:1008280060D904285ED008285CD010285AD0202827
:1008380058D0402856D0802854D080235B00984256
:1008480050D080239B0098424CD08023DB009842F4
:1008580048D080231B01984244D080235B019842F2
:1008680040D080239B0198423CD08023DB019842F2
:1008780038D080231B02984234D080235B029842F0
:1008880030D080239B0298422CD08023DB029842F0
:1008980028D080231B03984224D080235B039842EE
:1008A80020D080239B0398421CD08023DB039842EE
:1008B80018D080231B04984214D080235B049842EC
:1008C80010D080239B0498420CD08023DB049842EC
:1008D80008D080231B05984204D00648802189004F
:1008E80000F084FE044B18680440201C441EA041FC
:1008F80010BDC046403D00080000024010B5041C71
:10090800030F01D1002804D103488F21890000F08A
:100918006DFE024B5C6010BD403D000800000240C7
:10092800F8B5051C0E1C9023DB05984212D03D4BF0
:1009380098420FD03C4B98420CD03C4B984209D07F
:100948003B4B984206D03B4B984203D03A48B421DF
:1009580000F04CFE3368002B03D13748B52100F076
:1009680045FE3379032B03D93348B62100F03EFE08
:10097800F379022B03D93048B72100F037FE002461
:1009880001274BE03B1CA34032681A409A4244D1ED
:100998003379013B012B28D87379012B05D9032B17
:1009A80003D02548C72100F021FEAA68630003216F
:1009B80099408A43AA60AA68717999400B1C13432D
:1009C800AB60B379012B03D91B48CE2100F00EFE92
:1009D800AA8823041B0C391C99408A43AA80AA8838
:1009E800B17999408BB21343AB8029686300032225
:1009F800101C984081432960286831799940014347
:100A08002960E9682004C00B82409143E960EA68E4
:100A1800F17999400B1C1343EB6001340F2CB1D9C9
:100A2800F8BDC0460004004800080048000C004813
:100A38000010004800140048703D0008044B036093
:100A480000230371012242718371C3717047C0464C
:100A5800FFFF000038B5041C0D1C9023DB059842ED
:100A680013D0274B984210D0264B98420DD0264BD6
:100A780098420AD0254B984207D0254B984204D07B
:100A880024489B21490000F0B1FD6B1E9BB2012B4D
:100A980030D9042D2ED0082D2CD0102D2AD0202D61
:100AA80028D0402D26D0802D24D080235B009D4265
:100AB80020D080239B009D421CD08023DB009D42D8
:100AC80018D080231B019D4214D080235B019D42D6
:100AD80010D080239B019D420CD08023DB019D42D6
:100AE80008D080231B029D4204D00A483821FF31D8
:100AF80000F07CFD208A0540281C451EA84138BD11
:100B08000004004800080048000C00480010004895
:100B180000140048703D000838B5041C0D1C9023D3
:100B2800DB05984213D00E4B984210D00D4B9842DB
:100B38000DD00D4B98420AD00C4B984207D00C4B65
:100B4800984204D00B48C821490000F04FFD002D01
:100B580004D108489221FF3100F048FDA56138BD55
:100B68000004004800080048000C00480010004835
:100B780000140048703D000838B5041C0D1C902373
:100B8800DB05984213D00E4B984210D00D4B98427B
:100B98000DD00D4B98420AD00C4B984207D00C4B05
:100BA800984204D00B48A621FF3100F01FFD002D0C
:100BB80004D10848D321490000F018FD258538BD27
:100BC8000004004800080048000C004800100048D5
:100BD80000140048703D000870B5041C0D1C161C5C
:100BE8009023DB05984212D0174B98420FD0174B31
:100BF80098420CD0164B984209D0164B984206D012
:100C0800154B984203D01548154900F0EFFC0F2DFD
:100C180003D91248134900F0E9FC072E03D90F48FD
:100C2800114900F0E3FC07232B409B009E40E90894
:100C3800083189000A590F20984082430A510B59FC
:100C48001E430E5170BDC04600040048000800480D
:100C5800000C00480010004800140048703D0008CF
:100C68000D0200000E0200000F02000070B5041C07
:100C78008378012B03D91A48522100F0B7FC637816
:100C8800032B03D91648532100F0B0FCA378002B9E
:100C98001BD02578AA08134BC0329200D6580321DE
:100CA8000D40E900FF20051C8D40AE43351C6678D9
:100CB800B60130408840011C2943D15022781F21B9
:100CC8000A4001219140196008E023781F2119404A
:100CD80001238B40191C8023024AD15070BDC046A5
:100CE800A43D000800E100E070B5041C5E4B5B68A1
:100CF8000C221340042B0CD002D8002B05D028E07E
:100D0800082B0AD00C2B20D023E0584B036000207E
:100D180022E0564B036000201EE0534B5D68AD0295
:100D28005A682D0F0235C0235B021A4202D150487F
:100D3800684308E04C4BDB6A0F21194001314B48EE
:100D480002F056FE6843206006E04A4B036000202C
:100D580002E0464B23600020434B5A681206120FEC
:100D6800454DA95CC9B22668321CCA40111C626094
:100D78005A685205520FAA5CD2B2D1400A1CA1602F
:100D88001B6BD90502D43D4BE36008E0364B5B682A
:100D9800590402D45308E36001E09308E360324B3E
:100DA8001B6B590602D4364B236102E080231B02D9
:100DB80023612D4B1B6BD90602D42C4B636100E0D9
:100DC8006661294B1B6B990701D1A26119E0264B7B
:100DD8001B6B03210B40012B01D1A66111E0224BB3
:100DE8001B6B03210B40022B03D180231B02A36141
:100DF80007E01D4B1B6B03210B40032B01D11B4B41
:100E0800A361194B196BC0239B02194201D1E261FE
:100E180020E0154B1B6BC02292021A4080235B0214
:100E28009A4201D1E66115E00F4B1B6BC02292027A
:100E38001A4080239B029A4203D180231B02E3615C
:100E480008E0094B1A6BC0239B021A409A4201D151
:100E5800064BE361044B1B6B1A0602D4054B236255
:100E680000E0206270BDC0460010024000127A0007
:100E780000093D00006CDC0204000020809FD500C2
:100E88001280000038B5041C0D1C0D4B184201D10E
:100E9800002803D10B480C4900F0A8FB012D03D909
:100EA80008480A4900F0A2FB002D04D0084B5A69F3
:100EB80014435C6103E0064B5A69A2435A6138BD8A
:100EC800AAFF81FED83D000836050000370500005E
:100ED8000010024038B5041C0D1C0D4B184201D1FE
:100EE800002803D10B480C4900F080FB012D03D9E1
:100EF80008480A4900F07AFB002D04D0084B9A698B
:100F080014439C6103E0064B9A69A2439A6138BD79
:100F1800FEA5B8FFD83D00085A0500005B05000093
:100F28000010024038B5041C0D1C0E4B184201D1AC
:100F3800002803D10C480D4900F058FB012D04D9B5
:100F48000948B121C90000F051FB002D04D0084B1D
:100F5800DA691443DC6103E0054BDA69A243DA611C
:100F680038BDC046CCB61185D83D000887050000BD
:100F78000010024038B5041C0D1C0E4B184201D15C
:100F8800002803D10C480D4900F030FB012D04D98D
:100F98000948B921C90000F029FB002D04D0084BED
:100FA800DA681443DC6003E0054BDA68A243DA60D0
:100FB80038BDC046FEA5B8FFD83D0008C7050000EB
:100FC80000100240F0B5474680B48AB0041C0D1CDE
:100FD8005C4B98420CD05C4B984209D05B4B9842D2
:100FE80006D05B4B984203D05A48DC2100F0FEFA49
:100FF8002A68013A584B9A4203D95648DD2100F035
:10100800F5FA6B68002B0AD080225201934206D071
:10101800524A934203D04F48DE2100F0E7FAAB680A
:10102800002B0BD080229201934207D0C02292015C
:10103800934203D04748DF2100F0D8FAEB68002B31
:101048000BD08022D200934207D0C022D200934214
:1010580003D04048E02100F0C9FA2B690C22191C82
:10106800914301D1002B03D13A48E12100F0BEFAA7
:101078006B69002B0FD08022520093420BD0802244
:101088009200934207D0C0229200934203D0314885
:10109800E22100F0ABFA23680122934323606268DF
:1010A8002F4B1340AA681343636022682D4B1A40E4
:1010B8006B68E9680B4329690B4313432360A268F3
:1010C800294B13406A691343A36001A8FFF70CFE7C
:1010D8001C4B9C4201D1079F05E01B4B9C4201D150
:1010E800089F00E0039F236819040CD57F00B846C9
:1010F8002F684046391C02F07BFC061C4046391C10
:1011080002F0BAFC0AE02A689046381C111C02F06A
:101118006FFC061C381C414602F0AEFC2A685208D7
:10112800002391425B41F6182368190404D533075C
:101138005B0F0E4A16401E43B6B2A6810AB004BC25
:101148009046F0BD0038014000440040004800408F
:10115800004C0040083E00087F8D5B000010001026
:10116800FFCFFFFFF3E9FFFFFFFCFFFFF0FF0000E9
:1011780096239B010360002343608360C3600C22B5
:10118800026143617047C04638B5041C0D1C124B00
:1011980098420DD0114B98420AD0114B984207D073
:1011A800104B984204D01048C821490000F01EFA9C
:1011B800012D04D90C489221FF3100F017FA002DB7
:1011C80004D0226801231343236003E0236801222B
:1011D8009343236038BDC0460038014000440040B6
:1011E80000480040004C0040083E000838B5041C88
:1011F8000D1C0D4B98420CD00C4B984209D00C4B4F
:10120800984206D00B4B984203D00B480B4900F08C
:10121800EDF90B4B9D4203D907480A4900F0E6F95E
:10122800ED05ED0D258538BD00380140004400402E
:1012380000480040004C0040083E000895030000AC
:10124800FF0100009603000010B5041C094B9842EA
:101258000CD0094B984209D0084B984206D0084B4D
:10126800984203D00748084900F0C0F9A08CC0058F
:10127800C00D10BD00380140004400400048004047
:10128800004C0040083E0008A603000070B5051C8D
:101298000C1C161C2C4B98420CD02C4B984209D095
:1012A8002B4B984206D02B4B984203D02A482B4907
:1012B80000F09CF984235B009C4225D0284B9C427B
:1012C80022D0284B9C421FD0274B9C421CD0274B36
:1012D8009C4219D0264B9C4216D0264B9C4213D0D8
:1012E800C0239B009C420FD0234B9C420CD0234B25
:1012F8009C4209D0224B9C4206D0224B9C4203D0F0
:101308001548214900F072F9012E03D912481F49E6
:1013180000F06CF92B1CA2B2120AFF210C4001212B
:10132800A1400C1C022A01D12B1D03E0032A01D184
:101338002B1C0833002E03D01A6814431C6002E0EB
:101348001A68A2431A6070BD00380140004400408A
:1013580000480040004C0040083E00080507000017
:101368000701070006010600050105000401040045
:10137800060208000A0309001A010B001B010C00F1
:101388000E011100160314000607000007070000ED
:1013980038B5051C0C1C314B98420CD0304B984288
:1013A80009D0304B984206D02F4B984203D02F4893
:1013B8002F4900F01BF9012C49D0802C47D0402C34
:1013C80045D0202C43D0102C41D080235B009C4278
:1013D8003DD080239B009C4239D0082C37D0042C68
:1013E80035D0022C33D08023DB009C422FD08023C1
:1013F8001B019C422BD080235B019C4227D0802379
:10140800DB019C4223D080231B029C421FD08023F7
:101418005B029C421BD080239B029C4217D08023F6
:10142800DB029C4213D080231B039C420FD08023F5
:101438005B039C420BD080239B039C4207D08023F4
:10144800DB039C4203D009480A4900F0CFF8E86959
:101458000440201C441EA04138BDC046003801404D
:101468000044004000480040004C0040083E00088E
:10147800930700009407000038B5051C0C1C2F4B7F
:1014880098420CD02E4B984209D02E4B984206D049
:101498002D4B984203D02D482D4900F0A7F88423FE
:1014A8005B009C422AD02B4B9C4227D02A4B9C4263
:1014B80024D02A4B9C4221D0294B9C421ED0294B38
:1014C8009C421BD0284B9C4218D0284B9C4215D0DC
:1014D800274B9C4212D0274B9C420FD0264B9C4254
:1014E8000CD0264B9C4209D0254B9C4206D0254B5C
:1014F8009C4203D01548244900F078F8A3B21B0A8F
:10150800FF222240012191400A1C012B02D12968A7
:101518000A4006E0022B02D169680A4001E0A96886
:101528000A40240C0123A3401C1CEB691C4000202A
:10153800002A02D0201C441EA04138BD00380140BA
:101548000044004000480040004C0040083E0008AD
:10155800E60700000701070006010600050105006F
:1015680004010400060208000A030900000303003E
:1015780000030200000301001A010B001B010C000C
:101588000E01110016031400E7070000FEE7C0462D
:1015980008B50120FFF7FAFF08B50D4B1B68002BB3
:1015A80002D10C4A0A4B1A60094B1B68033003220C
:1015B80090431818084A904206D902F069FA0C2399
:1015C80003600120404202E0014A1060181C08BD77
:1015D800900000208C0D0020001C002001230360D7
:1015E800014B0B607047C0461400002008B5FFF798
:1015F800CFFFC04608B500F05BF808BD82B00023F5
:1016080001930093274B1968802252020A431A60FB
:10161800191C80229202A020C0010B68134000937D
:10162800019B01330193009B002B02D1019B834254
:10163800F3D11C4B1B689A0302D50123009301E0E8
:1016480000230093009B012B2AD11122164B1A600C
:10165800144B5A685A605A685A605968134A0A40C3
:101668005A605968882252030A435A6019688022CE
:1016780052040A431A60191C802292040B68134210
:10168800FCD0084B5A6803218A435A6059680222E1
:101698000A435A60191C0C224B681340082BFBD1D3
:1016A80002B070470010024000200240FF7FC0FFD8
:1016B80008B5124B1968012211431960586810497E
:1016C8000140596018680F490140196018680E49AF
:1016D8000140196058680D4901405960D96A0F20C6
:1016E8008143D962186B0A4901401963596B9143C8
:1016F800596300229A60FFF781FF08BD001002407D
:101708000CB8FF08FFFFF6FEFFFFFBFFFFFFC0FF5F
:10171800ACFEFFFF70B5041C0E1C0023037073237E
:101728008360081C02F0A4FA0130606002F0B6F988
:10173800051E02D10323237003E0311C02F090FA46
:101748002561201C70BDC046002303706923836097
:101758000423436001617047002303706923836099
:10176800042343600161704700230370662383608C
:10177800042343600161704710B582B06B46009145
:101788000192002202707422826008224260021CC8
:10179800103212CB12C202B010BDC0460021017037
:1017A8000821416064218160026143617047C0463D
:1017B800F0B54F464646C0B483B0071C89469046EC
:1017C8000023037062238360101C04307860009249
:1017D80001AD6C460334042304E023782B70331CDA
:1017E8000135013C5E1E002BF7DC019C00940028AB
:1017F8000DDD02F053F9051E02D103233B7008E00A
:1018080010C04946424602F05DF93D6101E00023FF
:101818003B61381C03B00CBC90469946F0BDC046ED
:1018280010B5041C4368002B0BDD8368732B03D1B0
:10183800006902F03DF904E0622B02D1006902F070
:1018480037F9201C10BDC0460223037081600023B5
:101858004360704700238268692A00D10369181C15
:101868007047C04670B5431C012282560126212AC2
:1018780001D1831C002670427041C0B214E00124DB
:101888001C572D2C0AD10C7852B265B2AA4203DC3F
:1018980002229A5695420DDD033305E052B2002428
:1018A8000C57A24208D001331A785D2A05D0002AC5
:1018B800E5D102E0301C00E0301C70BD70B50E1C94
:1018C800013013E0013400E0041C23787D2B05D09F
:1018D800002B03D02F2B01D02C2BF3D1251A311C30
:1018E8002A1C02F0CCF9002809D0601C03787D2B53
:1018F80007D0002B07D02F2BE6D1002004E0281CAE
:1019080002E0002000E0002070BDC04608B5031CBE
:1019180002785D2A12D050B25D2805DC01203F2AEA
:1019280027D05B2A05D01EE07B2A0FD07D2A12D053
:1019380019E0181CFFF796FF1BE0013B00229A569E
:101948005B2AFAD1181CFFF78DFF12E0181CFFF76D
:10195800B5FF0EE0013B00229A567B2AFAD1181CEB
:10196800FFF7ACFF05E050B20023CB56C01A424245
:10197800504108BD70B5041C0D1C0B782F2B01D0ED
:10198800002B0ED123782F2B2ED00120002B2ED008
:1019980000202A2B2BD160782F2827D0434258418A
:1019A80025E006782A2E0BD10130FFF7E3FF031C50
:1019B8000120002B1BD1691C201CFFF7DBFF16E060
:1019C800FFF7A4FF002812D05B2E03D07B2E06D190
:1019D80000E0013423785D2B01D07D2BF9D1601C08
:1019E800691CFFF7C7FF02E0012000E0012070BD7D
:1019F800F0B557464E464546E0B480460F1C0B7876
:101A080000200A1C002B01D178E0013213782F2B1B
:101A180004D0002BF9D14446002008E044460020B9
:101A280005E05BB22A3B59424B41C0180134237888
:101A38002F2B01D0002BF4D1013C551E012815D0C5
:101A480002282BD054E0201C291CFFF75FFF002838
:101A580054D05D2E03D07D2E06D100E0013C2378C2
:101A68005B2B01D07B2BF9D1013C013D26782A2E36
:101A7800E9D1012042E0201C291CFFF747FF00287C
:101A88003CD05D2E03D07D2E06D100E0013C2378AA
:101A98005B2B01D07B2BF9D1013C013D26782A2E06
:101AA800E9D10135A946013CA2461DE0544601236F
:101AB8005B4299444E4612E0201C311CFFF726FF7A
:101AC80000280FD05D2D03D07D2D06D100E0013C0C
:101AD80023785B2B01D07B2BF9D1013C013E257883
:101AE8002A2DE9D1444508D0B945DFD8002005E0C2
:101AF8004046391CFFF73EFF00E001201CBC904621
:101B08009946A246F0BDC046F0B557464E464546F2
:101B1800E0B480460F1C9246994602F097F80028D8
:101B28000BD1404602F0A4F852461060381C02F06F
:101B38009FF84B461860032064E000235246136068
:101B48004A4613603D1C444645E02A2E14D1201C09
:101B5800291CFFF74DFF002801D153E001342378F9
:101B68002F2B03D0002BF9D100E001352B782F2B38
:101B780031D0002BF9D12EE02A2B0ED100E0013410
:101B880026782F2E03D0002EF9D100E001352E78CB
:101B98002F2E20D0002EF9D11DE0201C291CFFF784
:101BA800B5FE00282DD05B2E08D100E001340023BB
:101BB800E3565D2BFAD1013401350CE07B2E08D1B8
:101BC80000E001340023E3567D2BFAD101342D18AF
:101BD80001E0013401352B78002B02D02678002E45
:101BE800B3D14246A31A52461360EF1B4B461F60FF
:101BF8002878434258412378002B03D10223184305
:101C080000E000201CBC90469946A246F0BDC046A4
:101C180083688B4203DD43688900C85802E00423C7
:101C2800037300207047C04600B583B00068801871
:101C380001AA6B46FFF768FF033843425841C0B218
:101C480003B000BD38B5041C151C1A1CFFF7ECFFC7
:101C58000023002802D0201CA8470123181C38BDE7
:101C680070B5051C0E1C006801F022FF301C01F045
:101C7800FFFF013001F012FF041E04D103232B7370
:101C880000232B6003E0311C01F0EAFF2C6070BDDB
:101C980070B5051C067B731E9E41F6B2002408E051
:101CA800281C211CFFF7B4FF03785A1E93411E43DA
:101CB8000134AB68A342F3DC301C70BD38B5041C9A
:101CC800FFF7A6FF051C201CFFF7E2FF021C0020FF
:101CD800002A02D1281CFFF7BDFD38BD38B5041C09
:101CE800FFF796FF051C201CFFF7D2FF00230028F2
:101CF80000D12B7A58B238BD70B5041C151CFFF7FB
:101D080087FF061C201CFFF7C3FF011C00200029C9
:101D180004D1B3685B1B5D426B41D8B270BDC0464D
:101D280008B56922FFF7E8FF08BDC046F0B54F4681
:101D38004646C0B485B0061C0C1C081C00F054FCB8
:101D4800301CFFF7A5FF002800D0B6E03768381C24
:101D580001F08EFF421C03258543201C391C00F02E
:101D680059FC04E0201C002100F04CFC3D1C6F1EB7
:101D7800002DF7D1201C2C2100F044FC08E0301C79
:101D8800291CFFF7ABFFC1B2201C00F03BFC01355A
:101D9800B268AA42F3DC0323934306D1042304E088
:101DA800201C002100F02EFC2B1C5D1E002BF7D1FF
:101DB8000027032291460423984678E0301C391CFA
:101DC800FFF726FF051C8368732B01D0622B12D105
:101DD800201C29696A6800F01DFC6B685B424A4652
:101DE800134004E0201C002100F00CFC2B1C5D1E9D
:101DF800002BF7D15AE0642B11D1173002AA08231F
:101E080004E0037813700B1C01320138591E002BB3
:101E1800F7DC201C02A9082200F0FCFB46E0742B2A
:101E28002ED1011C103102A8082201F04BFE01A995
:101E38006A460B32434604E013780B70031C0131E9
:101E4800013A581E002BF7DC019B0093201C6946C1
:101E5800424600F0DFFB01A96A460F32434604E020
:101E680013780B70031C0131013A581E002BF7DC64
:101E7800019A0092201C6946424600F0CBFB15E00F
:101E8800542B13D0462B11D0011C133102AA434600
:101E980004E00B781370031C01320139581E002B23
:101EA800F7DC6A68201C02A900F0B4FB0137B368AC
:101EB800BB4283DC201C00F09DFB05B00CBC9046A7
:101EC8009946F0BD70B5041CCEB2182001F07CFD17
:101ED800051C71B2FFF7B8FC2B78032B01D12373D3
:101EE80011E0A16801318900606801F091FE0028C5
:101EF80002D10323237306E06060A2689300C550F3
:101F0800A3680133A36070BD38B5041C0D1C826939
:101F1800002A08DD43695A1C42610269D154836969
:101F2800013B836110E041691131006901F070FEE5
:101F38002061002806D063695A1C6261C5541023C9
:101F4800A36101E00323237338BDC04610B5041C08
:101F58000069102101F05CFE2061002802D01023E6
:101F6800A36103E003232373002323610023636138
:101F780010BDC04638B5041C002505608560057392
:101F88004560056145618561FFF7E0FF657338BD10
:101F980038B5041C0D1CFFF7EDFF201C291CFFF7AA
:101FA8005FFE201C38BDC04610B5041CFFF7E2FFD9
:101FB80002232373201C10BD70B5061C0023037375
:101FC80000240BE0301C211CFFF722FE051E04D064
:101FD800FFF726FC281C01F0F1FC0134B368A3428A
:101FE800F0DC706801F064FD00237360B360737304
:101FF800301CFFF7ABFF70BD10B5041C006801F082
:1020080057FD201CFFF7D8FF206901F051FD201C67
:1020180010BDC04610B5041C2169FFF721FE00233E
:102028002373201CFFF792FF10BDC046F0B547464A
:1020380080B48AB0071C0C1C00265FE2381C311CD7
:10204800FFF7E6FD0378022B00D056E28368623B77
:10205800122B00D956E29B00CB4AD3589F467A6987
:10206800042A00D04EE202A8396901F02BFD04A928
:102078006A460B32042304E013780B70031C013109
:10208800013A581E002BF7DC049DBB689E421ADA01
:10209800381C311CFFF7BCFD041E04D0FFF7C0FB41
:1020A800201C01F08BFC182001F08EFC041C291C5C
:1020B800FFF74AFB2378032B01D13B7326E0B600D8
:1020C8007B689C5122E09E421ED1182001F07CFCC6
:1020D800041C291CFFF738FB2378032B01D13B7321
:1020E80014E0B96801318900786801F091FD002891
:1020F80002D103233B7309E07860BA689300C450A7
:10210800BB680133BB6001E004233B73381CFFF755
:102118001DFFF7E17B69042B00D0F3E102A83969C0
:10212800042201F0CFFC04A96A460B32042304E020
:1021380013780B70031C0131013A581E002BF7DC91
:10214800049DBB689E421ADA381C311CFFF760FDFB
:10215800041E04D0FFF764FB201C01F02FFC18209C
:1021680001F032FC041C291CFFF7FEFA2378032B2C
:1021780001D13B7326E0B6007A68945122E09E4272
:102188001ED1182001F020FC041C291CFFF7ECFAD2
:102198002378032B01D13B7314E0B968013189001E
:1021A800786801F035FD002802D103233B7309E06C
:1021B8007860BA689300C450BB680133BB6001E023
:1021C80004233B73381CFFF7C1FE9BE17B69082B96
:1021D80000D097E102A83969082201F073FC04A92C
:1021E8006A460F32082304E013780B70031C013190
:1021F800013A581E002BF7DC049C059DBB689E42E3
:102208001EDA381C311CFFF703FD8046002804D075
:10221800FFF706FB404601F0D1FB182001F0D4FB84
:102228008046221C2B1CFFF7B9FA42461378032B71
:1022380001D13B7328E0B60042467B689A5123E0FF
:102248009E421FD1182001F0BFFB061C221C2B1C2C
:10225800FFF7A4FA3378032B01D13B7314E0B96874
:1022680001318900786801F0D3FC002802D10323EA
:102278003B7309E07860BA689300C650BB680133C5
:10228800BB6001E004233B73381CFFF75FFE39E1B4
:102298007B69082B00D035E168463969082201F0CE
:1022A80011FC04A96A460332042304E013780B7076
:1022B800031C0131013A581E002BF7DC049A0092E6
:1022C80004A96A460732042304E013780B70031C40
:1022D8000131013A581E002BF7DC049B019302A838
:1022E8006946082201F0EEFBBB689E4220DA381CE2
:1022F800311CFFF78DFC041E04D0FFF791FA201C57
:1023080001F05CFB06A802A9082201F0DBFB1820FB
:1023180001F05AFB041C0699079AFFF72DFA237857
:10232800032B01D13B7333E0B6007A6894512FE058
:102338009E422BD104A802A9082201F0C3FB08A8D9
:1023480004A9082201F0BEFB182001F03DFB041C83
:102358000899099AFFF710FA2378032B01D13B73E8
:1023680016E0B96801318900786801F051FC00284D
:1023780002D103233B730BE07860BA689300C45022
:10238800BB680133BB6003E03C3E000804233B7399
:10239800381CFFF7DBFDB5E0002C00D0B2E03D694A
:1023A800BB689E421ADA381C311CFFF731FC041E48
:1023B80004D0FFF735FA201C01F000FB182001F0CB
:1023C80003FB041C291CFFF7A5F92378032B01D173
:1023D8003B7326E0B6007B689C5122E09E421ED1EA
:1023E800182001F0F1FA041C291CFFF793F923784F
:1023F800032B01D13B7314E0B96801318900786877
:1024080001F006FC002802D103233B7309E0786041
:10241800BA689300C450BB680133BB6001E0042371
:102428003B73381CFFF792FD06237B736AE07D69D6
:10243800042D67DD3B69984602A8191C042201F0A7
:1024480041FB04A86A460B32042304E013780370A6
:10245800231C0130013A5C1E002BF7DC049C231D71
:102468009D424FD104229044BB689E421BDA381C1F
:10247800311CFFF7CDFB051E04D0FFF7D1F9281C4E
:1024880001F09CFA182001F09FFA051C4146221C15
:10249800FFF78EF92B78032B01D13B7327E0B600A9
:1024A8007B689D5123E09E421FD1182001F08CFAD1
:1024B800051C4146221CFFF77BF92B78032B01D121
:1024C8003B7314E0B96801318900786801F0A0FB1A
:1024D800002802D103233B7309E07860BA689300AF
:1024E800C550BB680133BB6001E004233B73381C53
:1024F800FFF72CFD06237B7304E00136BB68B3426B
:1025080000DD9BE50AB004BC9046F0BD38B5041C5C
:102518000D1CFFF7F9FC637B062B53D89B002A4A56
:10252800D3589F462F2D4DD1012363734AE0002DC8
:1025380048D1201CFFF76EFD0223637342E02C2D67
:1025480040D103236373201CFFF700FD3AE0002D00
:1025580004D0201C291CFFF7B5FC01E00423637399
:10256800A2680323934300D104239B18616999420D
:1025780028D1201CFFF7EAFC0523637322E0201C06
:10258800291CFFF753FD1DE0A568013D18E0201C3C
:10259800291CFFF73DFB0378002B10D143685B42F1
:1025A8000322134002D1052363730BE062699A4248
:1025B80008D1201CFFF7CAFC0523637302E0013D24
:1025C800002DE4DA38BDC046883E000870B5061C08
:1025D80006E04D1C0978301CFFF798FF221C291CC7
:1025E800541E002AF5D170BD002280235B00C2541E
:1025F8007047C04680235B00C25C0223FF33C2548D
:102608007047C04680235B00C25C81540132C254CB
:102618007047C04670B5061C06E04D1C0978301C92
:10262800FFF7F0FF221C291C541E002AF5D170BDAB
:10263800F0B5474680B482B08020C0020121FEF781
:1026480021FC6846FEF7FAF9802636010096012239
:1026580090466B461A7100259D7103275F71DD71E5
:10266800134C201C6946FEF75BF9201C311CFEF751
:1026780083FAB0231B01009342466B461A719D7181
:102688005F71DD71201C6946FEF74AF9201C802124
:102698004900FEF741FA201C80218900FEF73CFA28
:1026A800201C311CFEF738FA02B004BC9046F0BD7D
:1026B80000040048012303700023044A8350812248
:1026C80092008350C3229200835070471405000083
:1026D80010B5C0290CD18121890043585A1CC31850
:1026E800DB245C70531C43508018DC23437015E0D6
:1026F800DB290CD18121890043585A1CC318DB24DB
:102708005C70531C43508018DD23437006E081221F
:10271800920083585C1C8450C018417010BDC0469C
:10272800F0B5474680B40024C3239B00C45000235F
:10273800C326B600DB24A446C025A84629E0CC1849
:102748002578DB2D1BD15C1C0C192578DC2D08D1D4
:1027580085596F1C875145198227BF00ED194746D7
:102768002F712478DD2C08D18459651C85510419F2
:102778008225AD00641967462771023309E085593F
:102788006F1C8751247845198227BF00ED192C71D9
:1027980001339342D3DBC3239B00C258C4239B005D
:1027A800C25004BC9046F0BDF0B55F4656464D4653
:1027B8004446F0B483B02C4C2C49271C2C4EFF25E2
:1027C8002C4A944602239946012290463FE05A1C1F
:1027D800F35C9A46131C2B403B800378012B0FD1E6
:1027E8005346C02B02D14246027030E0424663464F
:1027F800C250C5239B005246C2544B46037026E084
:10280800022B24D1624682580192FF2A02D94346FC
:1028180003701CE05246C02A09D101230370C52366
:102828009B00C118019AFFF77BFF012014E0019A71
:102838009346012293445A466346C250019BC218EC
:10284800C4239B00D218534613714A46027023884A
:102858000A889342BBD1002003B03CBC90469946FD
:10286800A246AB46F0BDC0465207002056070020DE
:10287800880C002014050000012281239B00C2500F
:10288800C02343707047C046812189004258531CB9
:1028980043508218C02151708222920083507047A1
:1028A800F0B5474680B480460D1C141CFFF7E4FFC2
:1028B80006E06F1C29784046FFF70AFF341C3D1CD0
:1028C800661E002CF5D14046FFF7DEFF04BC90469B
:1028D800F0BDC04670B5051CFFF7E2FF0024822654
:1028E800B60004E02B19587801F014F80134A859FF
:1028F800A042F7D870BDC04608B50C4B18680C4903
:1029080001F076F801380B4B98420DD80A4B586005
:102918000A4A106A0002000AC0210906014311622E
:1029280000229A6007221A6008BDC0461C000020D9
:1029380010270000FFFFFF0010E000E000ED00E0BE
:102948000022014B1A6070476C070020014B186881
:102958007047C0466C070020064B1B68002B03D04D
:10296800044B1A68013A1A60034B1A6801321A605C
:102978007047C046680700206C07002008B5FFF7BD
:10298800EBFF08BD08B50022024B1A70FFF7D8FF0D
:1029980008BDC0462000002038B500230B4A0C486B
:1029A800002101E0C15401339342FBDDFFF7C8FF6A
:1029B8000024FA256D0006E0FFF7C8FFA84202D9F7
:1029C800FFF7BEFF0134622CF6DDFEE7FF030000CF
:1029D8008807002010B58CB001200121FEF752FABB
:1029E800134C201CFDF798FD01A8FDF7C5FE114BFF
:1029F8000193114B0293002303930622049205933B
:102A080080220692520007928022D2000892202249
:102A18000992802292010A920B93201C01A9FDF7CA
:102A2800F7FD201C0121FDF7B5FE0CB010BDC04616
:102A380008000240402401400C070020F0B589B08E
:102A48006846FDF7FBFF404C201CFDF7D1FB8020BA
:102A580080020121FEF716FA8020C0020121FEF74C
:102A680011FA802000030121FEF70CFA8027BF002D
:102A7800381C0121FEF72EFA3023009303256B46FC
:102A88001D710026DE7131486946FDF749FF009542
:102A98006B461D71DE712E486946FDF741FF122312
:102AA80000936B461D71DE719020C0056946FDF7E5
:102AB80037FF02AD281CFDF723FC082302930123EE
:102AC8002B71AE602E6104236B61201C291CFDF75D
:102AD800ABFB201C8021C9010522FDF739FC201C15
:102AE800802109020522FDF733FC201C1021052254
:102AF800FDF72EFC201C802149000522FDF728FC4B
:102B0800201C391C0522FDF723FC201C022105226C
:102B1800FDF71EFC201CFDF743FC201C0221FDF7DD
:102B28009DFC201C0121FDF775FC201C0121FDF7EF
:102B3800EFFB201C0121FDF7A9FC0028F9D0024871
:102B4800FDF754FC09B0F0BD00240140000800481E
:102B58000004004838B5041C524880210901FDF7DB
:102B6800DBFF201C0021FFF7DBF8002800D198E0EC
:102B7800201C0021FFF7A2F8C3175B0FC018072419
:102B88000440E41A0FD1474D281C80218900FDF725
:102B9800C3FF281C80210901FDF7BEFF281C8021E6
:102BA8004900FDF7B9FF012C0FD13E4D281C8021AB
:102BB8008900FDF7B1FF281C80210901FDF7ACFF52
:102BC800281C80214900FDF7D7FF022C0FD1354D75
:102BD800281C80218900FDF79FFF281C80210901FE
:102BE800FDF7CAFF281C80214900FDF795FF032C3B
:102BF8000FD12C4D281C80218900FDF78DFF281C42
:102C080080210901FDF7B8FF281C80214900FDF744
:102C1800B3FF042C0FD1234D281C80218900FDF718
:102C2800ABFF281C80210901FDF776FF281C8021B5
:102C38004900FDF771FF052C0FD11A4D281C802182
:102C48008900FDF799FF281C80210901FDF764FF21
:102C5800281C80214900FDF78FFF062C0FD1114D4C
:102C6800281C80218900FDF787FF281C8021090185
:102C7800FDF782FF281C80214900FDF74DFF072C36
:102C88000FD1084C201C80218900FDF775FF201CFE
:102C980080210901FDF770FF201C80214900FDF704
:102CA8006BFF38BD0004004808B5012805D1034B67
:102CB800994202D10248FFF7FDFC08BDFFFF000062
:102CC800E401002030B583B0FFF784FEFFF7B6FEBD
:102CD8006846FDF7B3FE802080020121FEF7D2F896
:102CE8008020C0020121FEF7CDF8802000030121D9
:102CF800FEF7C8F8F423DB00009300256B461D712E
:102D08000124DC719020C0056946FDF709FEE02327
:102D18001B0200936B461D71DC7107486946FDF77D
:102D2800FFFDC02300936B461D71DC7103486946A3
:102D3800FDF7F6FD03B030BD000400480008004868
:102D480010B588B001A81C49FFF722F9182000F037
:102D58003BFE041C19491722FEF72AFD2378032B92
:102D680003D1032201AB1A7312E0039901310298CF
:102D7800890000F04DFF002803D1032201AB1A732C
:102D880006E00290039A9300C450039B0133039317
:102D98000B4C01A8211CFEF7C9FF0223FF33E25C9C
:102DA8000848211CFFF796FD01A8FFF705F901A8BF
:102DB800FFF722F908B010BDA43E000870070020F4
:102DC8009C000020E4010020F0B5474680B488B09C
:102DD80001A82249FFF7DCF80024214F032290467E
:102DE80023E0A300DE59182000F0EEFD051C311C7D
:102DF800FEF7AAFC2B78032B03D101AB42461A73CA
:102E080012E0029803990131890000F001FF0028BF
:102E180003D101AB42461A7306E00290039A93006D
:102E2800C550039B013303930134052CD9D90D4CAC
:102E380001A8211CFEF77AFF0223FF33E25C0A484F
:102E4800211CFFF747FD01A8FFF7B6F801A8FFF717
:102E5800D3F808B004BC9046F0BDC046AC3E0008AC
:102E6800A40100209C000020E401002008B5902067
:102E7800C0052021FDF7EEFD642342425041404247
:102E88000340384A13709020C0058021FDF7E2FD09
:102E980064234242504140420340324A53709020DA
:102EA800C00580214900FDF7D5FD64234242504109
:102EB800404203402B4A93709020C005802189002E
:102EC800FDF7C8FD64234242504140420340254A71
:102ED800D3709020C0058021C900FDF7BBFD642395
:102EE80042425041404203401E4A13711E4880210D
:102EF8008901FDF7AFFD642342425041404203403F
:102F0800184A537118488021C901FDF7A3FD6423AD
:102F18004242504140420340124A93711248802174
:102F28000902FDF797FD64234242504140420340A5
:102F38000C4AD3710D484021FDF78CFD64234242B1
:102F4800504140420340074A137208488021FDF768
:102F580081FD64234242504140420340014A53727A
:102F680008BDC046FC0600200004004800080048D0
:102F780070B511480168114B1E78114C8A0055181C
:102F88006D002E555D7852185200A21855709C7825
:102F98009470DC78D4701C7914715C7954719C79C4
:102FA8009471DC79D4711C7A14725B7A5372013192
:102FB80003231940016070BDDC010020FC060020DD
:102FC80020070020F0B5474680B488B0FFF7D0FF4F
:102FD80000247B4E371C351CEBE0335D002B70D092
:102FE8003B199B7A002B6CD02B191B7D002B68D0CA
:102FF800734B1B199B7F002B63D0724B1B5D002BFF
:103008005FD101A87049FEF7C3FF182000F0DCFC6F
:103018008046211CFEF798FB41460B78032B03D111
:10302800032201AB1A7313E0029803990131890056
:1030380000F0EEFD002803D1032201AB1A7307E06C
:103048000290039A93004146C150039B01330393B6
:10305800182000F0B9FC80466421FEF775FB424653
:103068001378032B03D1032201AB1A7313E00298E0
:1030780003990131890000F0CBFD002803D1032218
:1030880001AB1A7307E0029003998B004246C250C5
:10309800039B013303934D4B984601A8191CFEF777
:1030A80045FE0223FF334146CA5C4948FFF712FC3C
:1030B80001A8FEF781FF6422424B1A5501A8FEF7CA
:1030C8009BFF3F4B1B5D002B72D13D4B1B199B7A1D
:1030D800002B6DD13A4B1B191B7D002B68D1384B47
:1030E8001B199B7F002B63D1364B1B5D002B5FD0D8
:1030F80001A83549FEF74CFF182000F065FC804612
:10310800211CFEF721FB42461378032B03D103222F
:1031180001AB1A7313E0029803990131890000F09A
:1031280077FD002803D1032201AB1A7307E0029050
:1031380003998B004246C250039B01330393182026
:1031480000F042FC80460021FEF7FEFA41460B786B
:10315800032B03D1032201AB1A7313E002980399DE
:103168000131890000F054FD002803D1032201AB8E
:103178001A7307E00290039A93004146C150039BDB
:1031880001330393114A904601A8111CFEF7CEFDA6
:103198000223FF334146CA5C0D48FFF79BFB01A899
:1031A800FEF70AFF0022074B1A5501A8FEF724FF75
:1031B8000134092C00D810E708B004BC9046F0BDD3
:1031C80020070020C8010020B43E00089C00002011
:1031D800E401002008B50220FDF71EFB012810D1EC
:1031E8000220FDF78BFB074A1188074B19615188AC
:1031F800196091885960D188D9601189996052897C
:103208005A6108BD0C070020A401002010B588B041
:103218004E4B5B69632B04D84D4A127800204D4908
:103228008854E1229200934204D9494A1278012035
:1032380048498854464A11780131012001401170EB
:10324800444A1178527891427DD1632B3AD8424B47
:103258001B78002B36D000223F4B1A7001A83F493B
:10326800FEF796FE182000F0AFFB041C0121FEF7C4
:1032780073FA2378032B03D1032201AB1A7312E0EC
:10328800029803990131890000F0C2FC002803D19B
:10329800032201AB1A7306E00290039A9300C4500C
:1032A800039B013303932E4C01A8211CFEF73EFD1E
:1032B8000223FF33E25C2B48211CFFF70BFB01A81C
:1032C800FEF79AFE214B5A69E1239B009A423AD9AC
:1032D800214B1B78002B36D101221F4B1A7001A8F5
:1032E8001E49FEF755FE182000F06EFB041C002155
:1032F800FEF732FA2378032B03D1032201AB1A73AA
:1033080012E0029803990131890000F081FC00283D
:1033180003D1032201AB1A7306E00290039A9300CB
:10332800C450039B013303930D4C01A8211CFEF7E5
:10333800FDFC0223FF33E25C0A48211CFFF7CAFAAE
:1033480001A8FEF759FE08B010BDC046A401002030
:10335800A0010020C401002048070020BC3E00084E
:103368009C000020E4010020F0B5474680B488B0F6
:1033780001A8FEF719FEFFF75BF9774880210901DC
:10338800FDF7FAFBFFF7B8FAFFF7DAFAF426FF368B
:10339800714D8024240103E0281C211CFDF7ECFB5F
:1033A800FFF7D4FAB042F7D9FFF7CAFAF426FF3686
:1033B800694D8024240103E0281C211CFDF7DCFB57
:1033C800FFF7C4FAB042F7D9FFF7BAFAF426FF3686
:1033D800614D8024240103E0281C211CFDF7CCFB4F
:1033E800FFF7B4FAB042F7D9FFF7AAFA5A4C201CF3
:1033F80080218900FDF790FB80252D01201C291CC8
:10340800FDF78AFB201C80214900FDF785FB00F0B1
:10341800D7F9FFF757FC012000F0C2F8FFF790FA40
:10342800201C291CFDF7A8FB00274C4D2C1C8323CE
:103438009B00EE18281CFFF7B7F9002824D0C423F6
:103448009B00E25801A8311CFFF7C0F801A8FEF75D
:103458001FFC002815D101A841490022FEF7E4FB12
:1034680000280AD001A8FEF7A7FDFFF769FA3D4C2E
:103478003A4D83239B00EE1827E001A8FEF79CFD38
:1034880002E001A8FEF798FDFFF760FA364B984274
:10349800D0D9FFF755FA622F01DC0137CAE72E4B66
:1034A8009846181C80210901FDF736FB404680210B
:1034B8008900FDF761FBBDE75A1C2C49C85CFF2356
:1034C8001A40284B1A8000F0EDF82388284A128801
:1034D8009342F1D12148FFF767F9002824D0C4238B
:1034E8009B00EA5801A8311CFFF770F801A8FEF705
:1034F800CFFB002815D101A81E491F4A0023FEF75B
:10350800A1FB01A81D491E4A0023FEF79BFB01A849
:103518001C491D4A0023FEF795FB01A8FEF74CFD48
:1035280002E001A8FEF748FDFFF7A0FCFFF74AFDFF
:10353800FFF76CFEFFF74EFEFFF708FAFA28C4D92A
:10354800124B1B78002BC0D1FFF7FAFBFFF73CFCAE
:1035580001220E4B1A70B8E700040048E40100206D
:10356800C03E000850070020DC050000880B002042
:1035780054070020C83E00085D2B0008D03E000814
:10358800A1290008DC3E00088D2900082000002041
:1035980008B501200149FFF787FB08BDFFFF0000C0
:1035A80000230C4A13600C4A13600C4A13600C4A3F
:1035B80013600C4A13600C4A13600C4A13700C4BCE
:1035C800186000230B49002201E0CA540133162B6E
:1035D800FBDD7047080700204C070020E0010020B1
:1035E800D4010020D8010020C0010020980000204C
:1035F800BC0100207007002010B54B061B0F0722E6
:103608001140034AD05C01248C40A043D05410BD23
:103618007007002010B54B061B0F07221140044A03
:10362800D05C01248C40211C0143D15410BDC046FC
:1036380070070020054A537D0133DBB25375182B00
:1036480002D10022014B5A757047C046700700200E
:103658000022014B5A75704770070020152901D1C7
:10366800094B1A74162901D1074B5A74172901D12D
:10367800054B9A74182901D1034BDA74192901D121
:10368800014B1A757047C04670070020014B9975A9
:103698007047C046700700200022014B5A757047DA
:1036A8007007002010B5041C3D4B1A681B78002BCE
:1036B80001D0F72872D1230630D5231EEF2B01DC69
:1036C800F0232340803B7B2B68D89B003549CB589F
:1036D8009F460222344B1A600022344B1A60344B46
:1036E8001C605BE00122304B1A6000222F4B1A60ED
:1036F8002F4B1C6052E0FF231A43294B1A604DE000
:10370800FF239A43264B1A6048E0FFF793FF45E0F2
:10371800FFF79EFF42E0FFF7BFFF3FE0234A136831
:1037280001331360204A1268934235D1204B1B683D
:103738000F2018400130EF2B01DCF02213401D4A06
:103748001268002A03D0904201D0EF2B21DD902B84
:1037580008D002DC802B0DD01BE0B02B10D0C02B82
:1037680014D016E0002C05D0134B1968221CFFF763
:1037780051FF0EE0104B1968221CFFF73DFF08E0CF
:103788000D4B1968221CFFF769FF02E0211CFFF7A7
:103798007DFF0022054B1A60074B1C6010BDC04618
:1037A80008070020E03E0008D80100204C07002050
:1037B800E0010020BC010020D40100207047C04671
:1037C800F0B55F4656464D464446F0B48BB002AC61
:1037D800201CFDF733F904A8FDF7CAFC8025AD02CB
:1037E800281C0121FDF74EFB281C0121FDF79AFB3F
:1037F8009026F605301C02210122FDF7EDF9301C58
:1038080003210122FDF7E8F90C23984602930323CC
:103818009B46637102239A4623710025A5710127EF
:10382800E771301C211CFDF77BF8344B0493059598
:1038380006950795099543460893314B9846181CF9
:1038480004A9FDF7BFFB2F4B99464046191C0122DE
:10385800FDF71CFD01AE1C2333707570B770301C6A
:10386800FDF704FA40460121FDF78EFC201CFDF708
:10387800E5F804A8FDF77CFC8020C0020121FDF7D3
:1038880001FB8020C0010121FDF724FB1E4B984657
:10389800181C07210022FDF79FF9802302935B463D
:1038A800637153462371A571E7714046211CFDF7EA
:1038B80037F8164B04930595069507950995042343
:1038C8000893134C201C04A9FDF77CFB201C4946D7
:1038D8000122FDF7DBFC1B2333707570B770301CB9
:1038E800FDF7C4F9201C0121FDF74EFC0BB03CBCD0
:1038F80090469946A246AB46F0BDC04620A10700B7
:10390800004400400501050000040048127A000048
:103918000038014038B5051C054C201C8021FDF7F6
:1039280037FD0028F9D00248291CFDF75FFC38BD97
:103938000044004038B509480949FDF79DFD0028B5
:103948000BD0084C25880548FDF77EFC064B5855DA
:1039580023880133FF221340238038BD00440040F0
:103968000501050056070020880C002038B50E48D0
:1039780080214900FDF700F90C480D49FDF77CFD51
:1039880000280BD00B4C25880848FDF75DFC0A4B36
:10399800585523880133FF22134023800248802191
:1039A8004900FDF7B9F838BD000400480038014067
:1039B8000501050054070020880B002008B50028E1
:1039C80001D000F075F808BD10B5041E02D101241D
:1039D80000E09847201C00F061F8002805D1034B4F
:1039E8001B68002BF5D1FDF7D3FD10BD580700204B
:1039F800002934D00123002210B488422CD301249A
:103A08002407A14204D2814202D209011B01F8E72E
:103A1800E400A14204D2814202D249005B00F8E7E7
:103A2800884201D3401A1A434C08A04202D3001B13
:103A38005C0822438C08A04202D3001B9C08224346
:103A4800CC08A04202D3001BDC082243002803D084
:103A58001B0901D00909E3E7101C10BC70470028B6
:103A680001D00020C04307B4024802A140180290C8
:103A780003BDC046190000000029F0D003B5FFF7C8
:103A8800B9FF0EBC4243891A1847C0467047C04662
:103A9800014B18687047C0468400002008B5034BE6
:103AA800011C186800F060F808BDC04684000020BA
:103AB80008B5034B011C186800F00EF808BDC04695
:103AC8008400002010B50023934203D0CC5CC4547A
:103AD8000133F9E710BD000030B5002940D00439A2
:103AE8000B68002B00DAC9181E4A1368141C002B37
:103AF80002D14B60116033E099420FD208680A186E
:103B08009A4205D113685268C01808604A6000E0FC
:103B18004B60216024E08A4203D8131C5A68002AAB
:103B2800F9D11D685C198C420BD1096869185818BD
:103B38001960904214D114685268091919605A60C2
:103B48000EE08C4202D90C23036009E008680C18C7
:103B5800944203D114685268001908604A60596099
:103B680030BDC0466007002070B50323CD1C9D43BF
:103B78000835061C0C2D01D20C2501E0002D3FDB79
:103B88008D423DD3204B1C681A1C211C002913D0E0
:103B98000868431B0DD40B2B02D90B60CC181EE010
:103BA8008C4202D1636813601AE0486860600C1C9C
:103BB80016E00C1C4968E9E7144C2068002803D17A
:103BC800301C00F031F82060301C291C00F02CF863
:103BD800431C15D0C41C03239C4384420AD125608E
:103BE800201C0B300722231D9043C31A0BD05A42C6
:103BF800E25008E0211A301C00F016F80130EED12E
:103C08000C233360002070BD600700205C07002093
:103C180008B50A1C0349031C0868191C00F045F87C
:103C280008BDC0468400002038B5074C0023051C99
:103C3800081C2360FDF7B0FC431C03D12368002B4C
:103C480000D02B6038BDC0466407002002780B788E
:103C580001300131002A01D09A42F7D0D01A7047BA
:103C6800031C0A7801311A700133002AF9D1704710
:103C78000023C25C0133002AFBD1581E7047031C85
:103C8800002010B582420FD01C780878A04201D1DC
:103C9800012A03D118780B78C01A05E0013A0028E8
:103CA800F8D001330131EFE710BDF8B5061C0C1C44
:103CB800151C002904D1111CFFF756FF041C18E03D
:103CC800002A03D1FFF708FF2C1C12E000F013F8BC
:103CD800A8420ED2301C291CFFF746FF071E07D04A
:103CE800211C2A1CFFF7EEFE301C211CFFF7F4FEF6
:103CF8003C1C201CF8BD04390B68181F002B02DA85
:103D0800C8581B18181F70472E2E2F7379737465A7
:103D18006D2F7372632F73746D333266302D737425
:103D2800647065726970682F73746D3332663078A9
:103D3800785F6164632E63002E2E2F737973746528
:103D48006D2F7372632F73746D333266302D7374F5
:103D5800647065726970682F73746D333266307879
:103D6800785F646D612E63002E2E2F7379737465EE
:103D78006D2F7372632F73746D333266302D7374C5
:103D8800647065726970682F73746D333266307849
:103D9800785F6770696F2E63000000002E2E2F7306
:103DA800797374656D2F7372632F73746D33326614
:103DB800302D7374647065726970682F73746D3315
:103DC80032663078785F6D6973632E630000000097
:103DD8002E2E2F73797374656D2F7372632F73741E
:103DE8006D333266302D7374647065726970682F34
:103DF80073746D3332663078785F7263632E630054
:103E08002E2E2F73797374656D2F7372632F7374ED
:103E18006D333266302D7374647065726970682F03
:103E280073746D3332663078785F75736172742E8F
:103E380063000000362400080C250008D42100087F
:103E48000C2500081C2100080C2500080C2500087A
:103E5800662000080C2500080C2500080C25000821
:103E68000C2500080C2500080C2500080C25000866
:103E78000C2500080C250008A0230008982200083B
:103E88002C25000836250008462500085625000878
:103E98006825000886250008902500082F6D626CAB
:103EA8006F6200002F6B6E6F627300002F6B657975
:103EB800000000002F6673002F72656164790000AE
:103EC8002F6C6564000000002F73687574646F7749
:103ED8006E0000002F6E6600DA360008A43700086E
:103EE800A4370008A4370008A4370008A43700083E
:103EF800A4370008A4370008A4370008A43700082E
:103F0800A4370008A4370008A4370008A43700081D
:103F1800A4370008A4370008DA360008A4370008D8
:103F2800A4370008A4370008A4370008A4370008FD
:103F3800A4370008A4370008A4370008A4370008ED
:103F4800A4370008A4370008A4370008A4370008DD
:103F5800A4370008A4370008DA360008A437000898
:103F6800A4370008A4370008A4370008A4370008BD
:103F7800A4370008A4370008A4370008A4370008AD
:103F8800A4370008A4370008A4370008A43700089D
:103F9800A4370008A4370008DA360008A437000858
:103FA800A4370008A4370008A4370008A43700087D
:103FB800A4370008A4370008A4370008A43700086D
:103FC800A4370008A4370008A4370008A43700085D
:103FD800A4370008A4370008EC360008A437000806
:103FE800A4370008A4370008A4370008A43700083D
:103FF800A4370008A4370008A4370008A43700082D
:10400800A4370008A4370008A4370008A43700081C
:10401800A4370008A4370008EC360008A4370008C5
:10402800A4370008A4370008A4370008A4370008FC
:10403800A4370008A4370008A4370008A4370008EC
:10404800A4370008A4370008A4370008A4370008DC
:10405800A4370008A4370008DA360008A437000897
:10406800A4370008A4370008A4370008A4370008BC
:10407800A4370008A4370008A4370008A4370008AC
:10408800A4370008A4370008A4370008A43700089C
:10409800A4370008A4370008FE360008A437000833
:1040A800DA360008EC360008A4370008A437000800
:1040B800A43700080837000812370008A43700089A
:0A40C800183700081E3700084300F7
:1040D40078563412000000000102030401020304B4
:1040E400060708099400002000000000006CDC02B0
:1040F40001000000000000000000000000000000BB
:1041040000000000000000000000000000000000AB
:1041140000000000D0400008000000000000000083
:10412400000000000000000000000000000000008B
:10413400000000000000000000000000000000007B
:10414400000000000000000000000000000000006B
:0C41540000000000240000203254769887
:04000005080000C52A
:00000001FF
