:020000040800F2
:1000000000200020D5010008DD010008E101000802
:1000100000000000000000000000000000000000E0
:10002000000000000000000000000000E5010008E2
:100030000000000000000000E9010008212A00087B
:10004000F1010008F1010008F1010008F1010008C8
:10005000F1010008F1010008F1010008F1010008B8
:10006000F1010008F1010008F1010008F1010008A8
:10007000F1010008F1010008F1010008F101000898
:10008000F1010008F101000800000000F101000882
:10009000F1010008F1010008F1010008F101000878
:1000A000F1010008F1010008093E000821410008A3
:1000B000E940000800000000F10100080000000015
:1000C0005FF808F130B583B0314B324A1360324AE1
:1000D0001360324B3249002201E01A6004338B4234
:1000E000FBD32C4B1B68002B03D12B4B1B68002B25
:1000F00000D0FEE7264B2B4A13602B4A13602B4B94
:100100002B4A2C4903E010681860043304328B42F8
:10011000F9D3244B1A68284B9A4204D1224B1A680F
:100120001B689A4200D0FEE701F0B6FA01A86946C2
:1001300001F0A6FA214B224DED1AAD10002404E087
:10014000A3001E4A9B5898470134A542F8DC1D4B7A
:100150001D4DED1AAD10002404E0A30019481B58F2
:1001600098470134A542F8DC0198009903F026FC79
:10017000051C164B164CE41AA41004E0013CA30025
:10018000124A9B589847002CF8DC281C01F050FAC2
:10019000BABADECA88000020180E002088000020AD
:1001A0001C0E002000000020840000200000002021
:1001B000B05400088800002078563412F40100087A
:1001C000F4010008F4010008F8010008F801000833
:1001D000F801000808B5FFF775FFC046FEE7C04606
:1001E000FEE7C046FEE7C046FEE7C046FEE7C04663
:0401F000FEE7C04620
:0401F400D53B0008EF
:1001F80010B5041C0A4B984203D00A48852101F027
:1002080043FA074B9C4209D18024A400201C0121F9
:1002180000F0B0FE201C002100F0ACFE10BDC0466E
:1002280000240140004B000838B5051C0C1C314B5C
:10023800984203D03048A12101F026FA2368002B08
:1002480009D0082B07D0102B05D0182B03D02A482B
:10025800A22101F019FA2379012B03D92648A321F9
:1002680001F012FAA368002B0FD08022D20093422B
:100278000BD080221201934207D0C0221201934270
:1002880003D01D48A42101F0FFF9E368002B0DD02D
:10029800402B0BD0802B09D0C02B07D080225200D6
:1002A800934203D01448A52101F0EEF92369002BED
:1002B80005D0202B03D01048A62101F0E5F9636989
:1002C800002B05D0042B03D00B48A72101F0DCF943
:1002D800EA680A4B1A4023795B0321680B43A1683B
:1002E8000B43E1680B4321690B4361690B431343DB
:1002F800EB6038BD00240140004B000803D2FFFF2B
:100308000023036003718360C36003614361704726
:1003180038B5041C0D1C0C4B984203D00B48E9213E
:1003280001F0B2F9012D03D90848EA2101F0ACF92E
:10033800002D04D0A26801231343A36003E0A26840
:1003480002231343A36038BD00240140004B00087A
:1003580070B5041C0D1C161C0D4B984203D00D489B
:100368000D4901F091F9002D01D0EB0C04D009489A
:10037800B421890001F088F9072E03D905480749F7
:1003880001F082F9A36A1D43A562666170BDC0468B
:1003980000240140004B0008CF020000D1020000F9
:1003A80010B5041C0E4B984203D00E480E4901F0BC
:1003B8006BF9A26880231B061343A3600023F02176
:1003C8000902A268D20FD20701338B4201D0002A5A
:1003D800F7D1A368002B01DB206C00E0002010BDE2
:1003E80000240140004B00083D03000010B5041C28
:1003F800054B984203D00548054901F045F9A26824
:1004080004231343A36010BD00240140004B0008DF
:100418006F03000038B5041C0D1C0D4B984204D026
:100428000C48EA21890001F02FF9012D03D9094868
:10043800094901F029F9002D04D0E268012313438A
:10044800E36003E0E36801229343E36038BDC046FC
:1004580000240140004B0008A903000038B5041C23
:100468000D1C074B984203D00648074901F00CF9C8
:10047800E36802229343E360E3681D43E56038BD07
:1004880000240140004B0008C303000038B5051CD8
:100498000C1C194B984203D01848194901F0F4F87C
:1004A800631E012B1CD9042C1AD0082C18D0802CC0
:1004B80016D0102C14D0134B9C4211D0124B9C42D6
:1004C8000ED0124B9C420BD0114B9C4208D081237A
:1004D8001B069C4204D009488B21C90001F0D4F8BE
:1004E800E30103D5A8680B4B184000E028680440D6
:1004F800201C441EA04138BD00240140004B0008C8
:10050800570400000100000102000001040000017E
:1005180010000001FFFFFFFE10B5041C324B98428B
:1005280015D0324B984212D0314B98420FD0314BF4
:1005380098420CD0304B984209D0304B984206D0A4
:100548002F4B984203D02F48842101F09DF8226850
:100558002D4B13402360002323606360A360E36096
:10056800214B9C4205D1294B59680F220A435A60F6
:1005780039E01E4B9C4205D1244B5968F0220A43AE
:100588005A6030E01A4B9C4206D1204B5968F02241
:1005980012010A435A6026E0164B9C4206D11B4BB7
:1005A8005968F02212020A435A601CE0124B9C421E
:1005B80006D1164B5968F02212030A435A6012E01A
:1005C8000E4B9C4206D1114B5968F02212040A4383
:1005D8005A6008E00A4B9C4205D10C4B5968F0223E
:1005E80012050A435A6010BD080002401C00024070
:1005F8003000024044000240580002406C000240B3
:1006080080000240304B0008FEFF0000000002405E
:1006180038B5051C0C1C4E4B984215D04D4B9842D2
:1006280012D04D4B98420FD04C4B98420CD04C4BAB
:10063800984209D04B4B984206D04B4B984203D076
:100648004A48CC2101F020F8A368002B05D0102BD4
:1006580003D04648CD2101F017F8E268013A444B2F
:100668009A4203D94148CE2101F00EF82369002BA4
:1006780005D0402B03D03D48CF2101F005F8636930
:10068800002B05D0802B03D03848D02100F0FCFF88
:10069800A369002B0BD080225200934207D08022FE
:1006A8009200934203D03148D12100F0EDFFE36975
:1006B800002B0BD08022D200934207D08022120157
:1006C800934203D02948D22100F0DEFF236A002B91
:1006D80005D0202B03D02548D32100F0D5FF636A2D
:1006E800C022920193420DD080229201934209D0F8
:1006F80080225201934205D0002B03D01B48D421FD
:1007080000F0C2FFA36A002B07D08022D2019342D7
:1007180003D01648D52100F0B7FF2A68154B1A40B8
:10072800A368216A0B4321690B4361690B43A169E3
:100738000B43E1690B43616A0B43A16A0B43134303
:100748002B60E3686B602168A9606368EB6038BD63
:10075800080002401C0002403000024044000240F1
:10076800580002406C00024080000240304B0008F4
:10077800FEFF00000F80FFFF0023036043608360DB
:10078800C360036143618361C3610362436283623F
:100798007047C04638B5041C0D1C164B984216D03D
:1007A800154B984213D0154B984210D0144B9842D1
:1007B8000DD0144B98420AD0134B984207D0134BD4
:1007C800984204D012482A21FF3100F05DFF012D24
:1007D80004D90F489521490000F056FF002D04D098
:1007E800226801231343236003E02268094B134066
:1007F800236038BD080002401C000240300002405F
:1008080044000240580002406C0002408000024050
:10081800304B0008FEFF000010B5041C431E012BDE
:1008280060D904285ED008285CD010285AD0202827
:1008380058D0402856D0802854D080235B00984256
:1008480050D080239B0098424CD08023DB009842F4
:1008580048D080231B01984244D080235B019842F2
:1008680040D080239B0198423CD08023DB019842F2
:1008780038D080231B02984234D080235B029842F0
:1008880030D080239B0298422CD08023DB029842F0
:1008980028D080231B03984224D080235B039842EE
:1008A80020D080239B0398421CD08023DB039842EE
:1008B80018D080231B04984214D080235B049842EC
:1008C80010D080239B0498420CD08023DB049842EC
:1008D80008D080231B05984204D00648802189004F
:1008E80000F0D2FE044B18680440201C441EA041AE
:1008F80010BDC046304B00080000024010B5041C73
:10090800030F01D1002804D103488F21890000F08A
:10091800BBFE024B5C6010BD304B0008000002407B
:10092800F8B5051C0E1C9023DB05984212D03D4BF0
:1009380098420FD03C4B98420CD03C4B984209D07F
:100948003B4B984206D03B4B984203D03A48B421DF
:1009580000F09AFE3368002B03D13748B52100F028
:1009680093FE3379032B03D93348B62100F08CFE6C
:10097800F379022B03D93048B72100F085FE002413
:1009880001274BE03B1CA34032681A409A4244D1ED
:100998003379013B012B28D87379012B05D9032B17
:1009A80003D02548C72100F06FFEAA686300032121
:1009B80099408A43AA60AA68717999400B1C13432D
:1009C800AB60B379012B03D91B48CE2100F05CFE44
:1009D800AA8823041B0C391C99408A43AA80AA8838
:1009E800B17999408BB21343AB8029686300032225
:1009F800101C984081432960286831799940014347
:100A08002960E9682004C00B82409143E960EA68E4
:100A1800F17999400B1C1343EB6001340F2CB1D9C9
:100A2800F8BDC0460004004800080048000C004813
:100A38000010004800140048604B0008044B036095
:100A480000230371012242718371C3717047C0464C
:100A5800FFFF000038B5041C0D1C9023DB059842ED
:100A680013D0274B984210D0264B98420DD0264BD6
:100A780098420AD0254B984207D0254B984204D07B
:100A880024489B21490000F0FFFD6B1E9BB2012BFF
:100A980030D9042D2ED0082D2CD0102D2AD0202D61
:100AA80028D0402D26D0802D24D080235B009D4265
:100AB80020D080239B009D421CD08023DB009D42D8
:100AC80018D080231B019D4214D080235B019D42D6
:100AD80010D080239B019D420CD08023DB019D42D6
:100AE80008D080231B029D4204D00A483821FF31D8
:100AF80000F0CAFD208A0540281C451EA84138BDC3
:100B08000004004800080048000C00480010004895
:100B180000140048604B000838B5041C0D1C9023D5
:100B2800DB05984213D00E4B984210D00D4B9842DB
:100B38000DD00D4B98420AD00C4B984207D00C4B65
:100B4800984204D00B48C821490000F09DFD002DB3
:100B580004D108489221FF3100F096FDA56138BD07
:100B68000004004800080048000C00480010004835
:100B780000140048604B000838B5041C0D1C902375
:100B8800DB05984213D00E4B984210D00D4B98427B
:100B98000DD00D4B98420AD00C4B984207D00C4B05
:100BA800984204D00B48A621FF3100F06DFD002DBE
:100BB80004D10848D321490000F066FD258538BDD9
:100BC8000004004800080048000C004800100048D5
:100BD80000140048604B000870B5041C0D1C161C5E
:100BE8009023DB05984212D0174B98420FD0174B31
:100BF80098420CD0164B984209D0164B984206D012
:100C0800154B984203D01548154900F03DFD0F2DAE
:100C180003D91248134900F037FD072E03D90F48AE
:100C2800114900F031FD07232B409B009E40E90845
:100C3800083189000A590F20984082430A510B59FC
:100C48001E430E5170BDC04600040048000800480D
:100C5800000C00480010004800140048604B0008D1
:100C68000D0200000E0200000F02000070B5041C07
:100C78008378012B03D91A48522100F005FD6378C7
:100C8800032B03D91648532100F0FEFCA378002B50
:100C98001BD02578AA08134BC0329200D6580321DE
:100CA8000D40E900FF20051C8D40AE43351C6678D9
:100CB800B60130408840011C2943D15022781F21B9
:100CC8000A4001219140196008E023781F2119404A
:100CD80001238B40191C8023024AD15070BDC046A5
:100CE800944B000800E100E070B5041C5E4B5B68A3
:100CF8000C221340042B0CD002D8002B05D028E07E
:100D0800082B0AD00C2B20D023E0584B036000207E
:100D180022E0564B036000201EE0534B5D68AD0295
:100D28005A682D0F0235C0235B021A4202D150487F
:100D3800684308E04C4BDB6A0F21194001314B48EE
:100D480003F02CFA6843206006E04A4B0360002059
:100D580002E0464B23600020434B5A681206120FEC
:100D6800454DA95CC9B22668321CCA40111C626094
:100D78005A685205520FAA5CD2B2D1400A1CA1602F
:100D88001B6BD90502D43D4BE36008E0364B5B682A
:100D9800590402D45308E36001E09308E360324B3E
:100DA8001B6B590602D4364B236102E080231B02D9
:100DB80023612D4B1B6BD90602D42C4B636100E0D9
:100DC8006661294B1B6B990701D1A26119E0264B7B
:100DD8001B6B03210B40012B01D1A66111E0224BB3
:100DE8001B6B03210B40022B03D180231B02A36141
:100DF80007E01D4B1B6B03210B40032B01D11B4B41
:100E0800A361194B196BC0239B02194201D1E261FE
:100E180020E0154B1B6BC02292021A4080235B0214
:100E28009A4201D1E66115E00F4B1B6BC02292027A
:100E38001A4080239B029A4203D180231B02E3615C
:100E480008E0094B1A6BC0239B021A409A4201D151
:100E5800064BE361044B1B6B1A0602D4054B236255
:100E680000E0206270BDC0460010024000127A0007
:100E780000093D00006CDC0204000020809FD500C2
:100E88001280000038B5041C0D1C0D4B184201D10E
:100E9800002803D10B480C4900F0F6FB012D03D9BB
:100EA80008480A4900F0F0FB002D04D0084B5A69A5
:100EB80014435C6103E0064B5A69A2435A6138BD8A
:100EC800AAFF81FEC84B0008360500003705000060
:100ED8000010024038B5041C0D1C0D4B184201D1FE
:100EE800002803D10B480C4900F0CEFB012D03D993
:100EF80008480A4900F0C8FB002D04D0084B9A693D
:100F080014439C6103E0064B9A69A2439A6138BD79
:100F1800FEA5B8FFC84B00085A0500005B05000095
:100F28000010024038B5041C0D1C0E4B184201D1AC
:100F3800002803D10C480D4900F0A6FB012D04D967
:100F48000948B121C90000F09FFB002D04D0084BCF
:100F5800DA691443DC6103E0054BDA69A243DA611C
:100F680038BDC046CCB61185C84B000887050000BF
:100F78000010024038B5041C0D1C0E4B184201D15C
:100F8800002803D10C480D4900F07EFB012D04D93F
:100F98000948B921C90000F077FB002D04D0084B9F
:100FA800DA681443DC6003E0054BDA68A243DA60D0
:100FB80038BDC046FEA5B8FFC84B0008C7050000ED
:100FC8000010024038B5041C0D1C064B984206D090
:100FD800054B984203D00548054900F055FB257399
:100FE80038BDC0460030014000380040F84B0008CA
:100FF800EB02000038B5051C0C1C144B984206D0B7
:10100800134B984203D01348134900F03DFB802C42
:1010180015D0402C13D0202C11D0102C0FD0022C1E
:101028000DD0012C0BD080235B009C4207D0042CF0
:1010380005D0082C03D00748084900F025FB28896B
:101048000440201C441EA04138BDC0460030014069
:1010580000380040F84B0008DA040000DB04000008
:10106800F0B5474680B48AB0041C0D1C5C4B98420E
:101078000CD05C4B984209D05B4B984206D05B4B36
:10108800984203D05A48DC2100F0FEFA2A68013A57
:10109800584B9A4203D95648DD2100F0F5FA6B689F
:1010A800002B0AD080225201934206D0524A934222
:1010B80003D04F48DE2100F0E7FAAB68002B0BD0D5
:1010C80080229201934207D0C0229201934203D01A
:1010D8004748DF2100F0D8FAEB68002B0BD08022BC
:1010E800D200934207D0C022D200934203D0404896
:1010F800E02100F0C9FA2B690C22191C914301D197
:10110800002B03D13A48E12100F0BEFA6B69002BAD
:101118000FD08022520093420BD08022920093423B
:1011280007D0C0229200934203D03148E22100F058
:10113800ABFA236801229343236062682F4B134064
:10114800AA681343636022682D4B1A406B68E968EC
:101158000B4329690B4313432360A268294B1340AF
:101168006A691343A36001A8FFF7BEFD1C4B9C42AC
:1011780001D1079F05E01B4B9C4201D1089F00E06D
:10118800039F236819040CD57F00B8462F68404692
:10119800391C03F003F8061C4046391C03F042F8DA
:1011A8000AE02A689046381C111C02F0F7FF061C5A
:1011B800381C414603F036F82A6852080023914249
:1011C8005B41F6182368190404D533075B0F0E4AF0
:1011D80016401E43B6B2A6810AB004BC9046F0BDC4
:1011E800003801400044004000480040004C0040E6
:1011F800284C00087F8D5B0000100010FFCFFFFF18
:10120800F3E9FFFFFFFCFFFFF0FF000096239B01BF
:101218000360002343608360C3600C220261436162
:101228007047C04638B5041C0D1C124B98420DD0AF
:10123800114B98420AD0114B984207D0104B984254
:1012480004D01048C821490000F01EFA012D04D925
:101258000C489221FF3100F017FA002D04D02268C3
:1012680001231343236003E023680122934323608F
:1012780038BDC046003801400044004000480040E6
:10128800004C0040284C000838B5041C0D1C0D4BC0
:1012980098420CD00C4B984209D00C4B984206D07F
:1012A8000B4B984203D00B480B4900F0EDF90B4B60
:1012B8009D4203D907480A4900F0E6F9ED05ED0D0E
:1012C800258538BD003801400044004000480040F2
:1012D800004C0040284C000895030000FF01000066
:1012E8009603000010B5041C094B98420CD0094B1A
:1012F800984209D0084B984206D0084B984203D030
:101308000748084900F0C0F9A08CC005C00D10BD01
:10131800003801400044004000480040004C0040B4
:10132800284C0008A603000070B5051C0C1C161CF0
:101338002C4B98420CD02C4B984209D02B4B9842FE
:1013480006D02B4B984203D02A482B4900F09CF931
:1013580084235B009C4225D0284B9C4222D0284BFA
:101368009C421FD0274B9C421CD0274B9C4219D033
:10137800264B9C4216D0264B9C4213D0C0239B0080
:101388009C420FD0234B9C420CD0234B9C4209D04B
:10139800224B9C4206D0224B9C4203D0154821493F
:1013A80000F072F9012E03D912481F4900F06CF9B8
:1013B8002B1CA2B2120AFF210C400121A1400C1CD7
:1013C800022A01D12B1D03E0032A01D12B1C08336B
:1013D800002E03D01A6814431C6002E01A68A24366
:1013E8001A6070BD003801400044004000480040C9
:1013F800004C0040284C00080507000007010700C2
:1014080006010600050105000401040006020800A3
:101418000A0309001A010B001B010C000E01110040
:1014280016031400060700000707000038B5051C5E
:101438000C1C314B98420CD0304B984209D0304BA1
:10144800984206D02F4B984203D02F482F4900F0DE
:101458001BF9012C49D0802C47D0402C45D0202C9A
:1014680043D0102C41D080235B009C423DD0802388
:101478009B009C4239D0082C37D0042C35D0022C44
:1014880033D08023DB009C422FD080231B019C4259
:101498002BD080235B019C4227D08023DB019C4218
:1014A80023D080231B029C421FD080235B029C42D6
:1014B8001BD080239B029C4217D08023DB029C42D6
:1014C80013D080231B039C420FD080235B039C42D4
:1014D8000BD080239B039C4207D08023DB039C42D4
:1014E80003D009480A4900F0CFF8E8690440201CF5
:1014F800441EA04138BDC0460038014000440040A9
:1015080000480040004C0040284C000893070000A9
:101518009407000038B5051C0C1C2F4B98420CD0C2
:101528002E4B984209D02E4B984206D02D4B98420C
:1015380003D02D482D4900F0A7F884235B009C4276
:101548002AD02B4B9C4227D02A4B9C4224D02A4B92
:101558009C4221D0294B9C421ED0294B9C421BD037
:10156800284B9C4218D0284B9C4215D0274B9C42B4
:1015780012D0274B9C420FD0264B9C420CD0264BB6
:101588009C4209D0254B9C4206D0254B9C4203D057
:101598001548244900F078F8A3B21B0AFF2222401C
:1015A800012191400A1C012B02D129680A4006E05A
:1015B800022B02D169680A4001E0A9680A40240C9C
:1015C8000123A3401C1CEB691C400020002A02D008
:1015D800201C441EA04138BD003801400044004092
:1015E80000480040004C0040284C0008E607000076
:1015F80007010700060106000501050004010400B3
:10160800060208000A0309000003030000030200A1
:10161800000301001A010B001B010C000E01110050
:1016280016031400E7070000FEE7C04608B50120CE
:10163800FFF7FAFF08B50D4B1B68002B02D10C4AC7
:101648000A4B1A60094B1B68033003229043181891
:10165800084A904206D902F0F1FD0C2303600120EC
:10166800404202E0014A1060181C08BD8C000020AE
:101678001C0E0020001C002001230360014B0B609E
:101688007047C0461400002008B5FFF7CFFFC046DA
:1016980008B500F05BF808BD82B000230193009301
:1016A800274B1968802252020A431A60191C8022AB
:1016B8009202A020C0010B6813400093019B0133E4
:1016C8000193009B002B02D1019B8342F3D11C4B59
:1016D8001B689A0302D50123009301E000230093BD
:1016E800009B012B2AD11122164B1A60144B5A6801
:1016F8005A605A685A605968134A0A405A605968C9
:10170800882252030A435A601968802252040A4305
:101718001A60191C802292040B681342FCD0084BF3
:101728005A6803218A435A60596802220A435A6058
:10173800191C0C224B681340082BFBD102B07047D0
:101748000010024000200240FF7FC0FF08B5124B86
:1017580019680122114319605868104901405960FD
:1017680018680F490140196018680E49014019604E
:1017780058680D4901405960D96A0F208143D962E0
:10178800186B0A4901401963596B91435963002248
:101798009A60FFF781FF08BD001002400CB8FF08EF
:1017A800FFFFF6FEFFFFFBFFFFFFC0FFACFEFFFFE2
:1017B80070B5041C0E1C0023037073238360081C7F
:1017C80002F04EFE0130606002F03EFD051E02D1BF
:1017D8000323237003E0311C02F03AFE2561201C2C
:1017E80070BDC046002303706923836004234360EF
:1017F80001617047002303706923836004234360F9
:1018080001617047002303706623836004234360EB
:101818000161704710B582B06B46009101920022B9
:1018280002707422826008224260021C103212CBBD
:1018380012C202B010BDC0460021017008214160EB
:1018480064218160026143617047C046F0B54F462C
:101858004646C0B483B0071C8946904600230370EF
:1018680062238360101C04307860009201AD6C46DE
:101878000334042304E023782B70331C0135013C26
:101888005E1E002BF7DC019C009400280DDD02F0A1
:10189800DBFC051E02D103233B7008E010C049465B
:1018A800424602F0E5FC3D6101E000233B61381C43
:1018B80003B00CBC90469946F0BDC04610B5041C58
:1018C8004368002B0BDD8368732B03D1006902F09A
:1018D800C5FC04E0622B02D1006902F0BFFC201CA9
:1018E80010BDC04602230370816000234360704727
:1018F80000238268692A00D10369181C7047C04612
:1019080070B5431C012282560126212A01D1831C6D
:10191800002670427041C0B214E001241C572D2CDF
:101928000AD10C7852B265B2AA4203DC02229A5656
:1019380095420DDD033305E052B200240C57A24254
:1019480008D001331A785D2A05D0002AE5D102E0D3
:10195800301C00E0301C70BD70B50E1C013013E067
:10196800013400E0041C23787D2B05D0002B03D024
:101978002F2B01D02C2BF3D1251A311C2A1C02F055
:1019880076FD002809D0601C03787D2B07D0002B3A
:1019980007D02F2BE6D1002004E0281C02E000200D
:1019A80000E0002070BDC04608B5031C02785D2A1F
:1019B80012D050B25D2805DC01203F2A27D05B2ACF
:1019C80005D01EE07B2A0FD07D2A12D019E0181C02
:1019D800FFF796FF1BE0013B00229A565B2AFAD1DB
:1019E800181CFFF78DFF12E0181CFFF7B5FF0EE07B
:1019F800013B00229A567B2AFAD1181CFFF7ACFF4C
:101A080005E050B20023CB56C01A4242504108BDEF
:101A180070B5041C0D1C0B782F2B01D0002B0ED198
:101A280023782F2B2ED00120002B2ED000202A2BFC
:101A38002BD160782F2827D04342584125E00678DB
:101A48002A2E0BD10130FFF7E3FF031C0120002BE6
:101A58001BD1691C201CFFF7DBFF16E0FFF7A4FF72
:101A6800002812D05B2E03D07B2E06D100E0013473
:101A780023785D2B01D07D2BF9D1601C691CFFF701
:101A8800C7FF02E0012000E0012070BDF0B5574615
:101A98004E464546E0B480460F1C0B7800200A1CD1
:101AA800002B01D178E0013213782F2B04D0002BC2
:101AB800F9D14446002008E04446002005E05BB226
:101AC8002A3B59424B41C018013423782F2B01D0AF
:101AD800002BF4D1013C551E012815D002282BD02B
:101AE80054E0201C291CFFF75FFF002854D05D2E0E
:101AF80003D07D2E06D100E0013C23785B2B01D07A
:101B08007B2BF9D1013C013D26782A2EE9D1012011
:101B180042E0201C291CFFF747FF00283CD05D2E1F
:101B280003D07D2E06D100E0013C23785B2B01D049
:101B38007B2BF9D1013C013D26782A2EE9D10135CC
:101B4800A946013CA2461DE0544601235B42994444
:101B58004E4612E0201C311CFFF726FF00280FD04C
:101B68005D2D03D07D2D06D100E0013C23785B2B51
:101B780001D07B2BF9D1013C013E25782A2DE9D1F2
:101B8800444508D0B945DFD8002005E04046391C57
:101B9800FFF73EFF00E001201CBC90469946A24694
:101BA800F0BDC046F0B557464E464546E0B48046BF
:101BB8000F1C9246994602F041FC00280BD1404682
:101BC80002F04EFC52461060381C02F049FC4B46AD
:101BD8001860032064E00023524613604A461360ED
:101BE8003D1C444645E02A2E14D1201C291CFFF731
:101BF8004DFF002801D153E0013423782F2B03D067
:101C0800002BF9D100E001352B782F2B31D0002B98
:101C1800F9D12EE02A2B0ED100E0013426782F2EA0
:101C280003D0002EF9D100E001352E782F2E20D0D8
:101C3800002EF9D11DE0201C291CFFF7B5FE002855
:101C48002DD05B2E08D100E001340023E3565D2B34
:101C5800FAD1013401350CE07B2E08D100E00134C3
:101C68000023E3567D2BFAD101342D1801E001340D
:101C780001352B78002B02D02678002EB3D14246AE
:101C8800A31A52461360EF1B4B461F602878434245
:101C980058412378002B03D10223184300E0002089
:101CA8001CBC90469946A246F0BDC04683688B424C
:101CB80003DD43688900C85802E004230373002049
:101CC8007047C04600B583B00068801801AA6B460B
:101CD800FFF768FF033843425841C0B203B000BD64
:101CE80038B5041C151C1A1CFFF7ECFF002300284C
:101CF80002D0201CA8470123181C38BD70B5051C4C
:101D08000E1C006802F0AAFA301C02F0A9FB013090
:101D180002F09AFA041E04D103232B7300232B60CC
:101D280003E0311C02F094FB2C6070BD70B5051CFB
:101D3800067B731E9E41F6B2002408E0281C211C75
:101D4800FFF7B4FF03785A1E93411E430134AB6872
:101D5800A342F3DC301C70BD38B5041CFFF7A6FFA6
:101D6800051C201CFFF7E2FF021C0020002A02D1FC
:101D7800281CFFF7BDFD38BD38B5041CFFF796FFDA
:101D8800051C201CFFF7D2FF0023002800D12B7A66
:101D980058B238BD70B5041C151CFFF787FF061C28
:101DA800201CFFF7C3FF011C0020002904D1B368E1
:101DB8005B1B5D426B41D8B270BDC04608B5692255
:101DC800FFF7E8FF08BDC046F0B54F464646C0B429
:101DD80085B0061C0C1C081C00F054FC301CFFF7D6
:101DE800A5FF002800D0B6E03768381C02F038FBA1
:101DF800421C03258543201C391C00F059FC04E0D3
:101E0800201C002100F04CFC3D1C6F1E002DF7D15A
:101E1800201C2C2100F044FC08E0301C291CFFF792
:101E2800ABFFC1B2201C00F03BFC0135B268AA42EE
:101E3800F3DC0323934306D1042304E0201C002190
:101E480000F02EFC2B1C5D1E002BF7D1002703226F
:101E580091460423984678E0301C391CFFF726FF8A
:101E6800051C8368732B01D0622B12D1201C2969B1
:101E78006A6800F01DFC6B685B424A46134004E048
:101E8800201C002100F00CFC2B1C5D1E002BF7D140
:101E98005AE0642B11D1173002AA082304E0037812
:101EA80013700B1C01320138591E002BF7DC201C63
:101EB80002A9082200F0FCFB46E0742B2ED1011C7D
:101EC800103102A8082202F0D3F901A96A460B32A0
:101ED800434604E013780B70031C0131013A581E85
:101EE800002BF7DC019B0093201C6946424600F05A
:101EF800DFFB01A96A460F32434604E013780B70F2
:101F0800031C0131013A581E002BF7DC019A00929C
:101F1800201C6946424600F0CBFB15E0542B13D039
:101F2800462B11D0011C133102AA434604E00B785A
:101F38001370031C01320139581E002BF7DC6A6844
:101F4800201C02A900F0B4FB0137B368BB4283DC54
:101F5800201C00F09DFB05B00CBC90469946F0BDD6
:101F680070B5041CCEB2182002F004F9051C71B239
:101F7800FFF7B8FC2B78032B01D1237311E0A1687C
:101F880001318900606802F019FA002802D10323A0
:101F9800237306E06060A2689300C550A36801330C
:101FA800A36070BD38B5041C0D1C8269002A08DDC9
:101FB80043695A1C42610269D1548369013B8361B8
:101FC80010E041691131006902F0F8F92061002838
:101FD80006D063695A1C6261C5541023A36101E0ED
:101FE8000323237338BDC04610B5041C00691021B3
:101FF80002F0E4F92061002802D01023A36103E075
:1020080003232373002323610023636110BDC046AB
:1020180038B5041C002505608560057345600561B9
:1020280045618561FFF7E0FF657338BD38B5041C6D
:102038000D1CFFF7EDFF201C291CFFF75FFE201C7D
:1020480038BDC04610B5041CFFF7E2FF0223237316
:10205800201C10BD70B5061C0023037300240BE080
:10206800301C211CFFF722FE051E04D0FFF726FCBA
:10207800281C02F079F80134B368A342F0DC7068D8
:1020880002F0ECF800237360B3607373301CFFF741
:10209800ABFF70BD10B5041C006802F0DFF8201C0F
:1020A800FFF7D8FF206902F0D9F8201C10BDC04600
:1020B80010B5041C2169FFF721FE00232373201C9F
:1020C800FFF792FF10BDC046F0B5474680B48AB00E
:1020D800071C0C1C00265FE2381C311CFFF7E6FDCC
:1020E8000378022B00D056E28368623B122B00D99A
:1020F80056E29B00CB4AD3589F467A69042A00D0FF
:102108004EE202A8396902F0B3F804A96A460B3214
:10211800042304E013780B70031C0131013A581EA4
:10212800002BF7DC049DBB689E421ADA381C311C70
:10213800FFF7BCFD041E04D0FFF7C0FB201C02F013
:1021480013F8182002F016F8041C291CFFF74AFBA4
:102158002378032B01D13B7326E0B6007B689C51A2
:1021680022E09E421ED1182002F004F8041C291C0B
:10217800FFF738FB2378032B01D13B7314E0B968D0
:1021880001318900786802F019F9002802D1032387
:102198003B7309E07860BA689300C450BB680133A8
:1021A800BB6001E004233B73381CFFF71DFFF7E118
:1021B8007B69042B00D0F3E102A83969042202F0FC
:1021C80057F804A96A460B32042304E013780B700D
:1021D800031C0131013A581E002BF7DC049DBB6833
:1021E8009E421ADA381C311CFFF760FD041E04D029
:1021F800FFF764FB201C01F0B7FF182001F0BAFFBD
:10220800041C291CFFF7FEFA2378032B01D13B732A
:1022180026E0B6007A68945122E09E421ED118202A
:1022280001F0A8FF041C291CFFF7ECFA2378032B04
:1022380001D13B7314E0B96801318900786802F074
:10224800BDF8002802D103233B7309E07860BA681F
:102258009300C450BB680133BB6001E004233B73A7
:10226800381CFFF7C1FE9BE17B69082B00D097E182
:1022780002A83969082201F0FBFF04A96A460F3257
:10228800082304E013780B70031C0131013A581E2F
:10229800002BF7DC049C059DBB689E421EDA381CA7
:1022A800311CFFF703FD8046002804D0FFF706FB2A
:1022B800404601F059FF182001F05CFF8046221CBF
:1022C8002B1CFFF7B9FA42461378032B01D13B7355
:1022D80028E0B60042467B689A5123E09E421FD10F
:1022E800182001F047FF061C221C2B1CFFF7A4FA3C
:1022F8003378032B01D13B7314E0B96801318900AD
:10230800786802F05BF8002802D103233B7309E0E8
:102318007860BA689300C650BB680133BB6001E0BF
:1023280004233B73381CFFF75FFE39E17B69082BF8
:1023380000D035E168463969082201F099FF04A9FF
:102348006A460332042304E013780B70031C01313E
:10235800013A581E002BF7DC049A009204A96A4639
:102368000732042304E013780B70031C0131013A8F
:10237800581E002BF7DC049B019302A8694608222B
:1023880001F076FFBB689E4220DA381C311CFFF74B
:102398008DFC041E04D0FFF791FA201C01F0E4FE26
:1023A80006A802A9082201F063FF182001F0E2FE46
:1023B800041C0699079AFFF72DFA2378032B01D1FD
:1023C8003B7333E0B6007A6894512FE09E422BD1DC
:1023D80004A802A9082201F04BFF08A804A90822B2
:1023E80001F046FF182001F0C5FE041C0899099A5F
:1023F800FFF710FA2378032B01D13B7316E0B96875
:1024080001318900786801F0D9FF002802D103233F
:102418003B730BE07860BA689300C450BB68013323
:10242800BB6003E05C4C000804233B73381CFFF7D7
:10243800DBFDB5E0002C00D0B2E03D69BB689E42F0
:102448001ADA381C311CFFF731FC041E04D0FFF7E0
:1024580035FA201C01F088FE182001F08BFE041CC0
:10246800291CFFF7A5F92378032B01D13B7326E03C
:10247800B6007B689C5122E09E421ED1182001F0D4
:1024880079FE041C291CFFF793F92378032B01D14B
:102498003B7314E0B96801318900786801F08EFF58
:1024A800002802D103233B7309E07860BA689300DF
:1024B800C450BB680133BB6001E004233B73381C84
:1024C800FFF792FD06237B736AE07D69042D67DDC3
:1024D8003B69984602A8191C042201F0C9FE04A809
:1024E8006A460B32042304E013780370231C01307E
:1024F800013A5C1E002BF7DC049C231D9D424FD142
:1025080004229044BB689E421BDA381C311CFFF73A
:10251800CDFB051E04D0FFF7D1F9281C01F024FEDD
:10252800182001F027FE051C4146221CFFF78EF9F2
:102538002B78032B01D13B7327E0B6007B689D51B4
:1025480023E09E421FD1182001F014FE051C4146CD
:10255800221CFFF77BF92B78032B01D13B7314E086
:10256800B96801318900786801F028FF002802D194
:1025780003233B7309E07860BA689300C550BB68D1
:102588000133BB6001E004233B73381CFFF72CFDCB
:1025980006237B7304E00136BB68B34200DD9BE58C
:1025A8000AB004BC9046F0BD38B5041C0D1CFFF7FA
:1025B800F9FC637B062B53D89B002A4AD3589F46C5
:1025C8002F2D4DD1012363734AE0002D48D1201CE3
:1025D800FFF76EFD0223637342E02C2D40D10323E5
:1025E8006373201CFFF700FD3AE0002D04D0201C87
:1025F800291CFFF7B5FC01E004236373A2680323D9
:10260800934300D104239B186169994228D1201C67
:10261800FFF7EAFC0523637322E0201C291CFFF75F
:1026280053FD1DE0A568013D18E0201C291CFFF79B
:102638003DFB0378002B10D143685B420322134013
:1026480002D1052363730BE062699A4208D1201C0A
:10265800FFF7CAFC0523637302E0013D002DE4DAAD
:1026680038BDC046A84C000870B5061C06E04D1CD5
:102678000978301CFFF798FF221C291C541E002AD9
:10268800F5D170BD002280235B00C2547047C0465C
:1026980080235B00C25C0223FF33C2547047C046EC
:1026A80080235B00C25C81540132C2547047C0462B
:1026B80070B5061C06E04D1C0978301CFFF7F0FFCA
:1026C800221C291C541E002AF5D170BDF0B54746BE
:1026D80080B482B08020C0020121FEF7D3FB684697
:1026E800FEF7ACF9802636010096012290466B462B
:1026F8001A7100259D7103275F71DD71134C201C31
:102708006946FEF70DF9201C311CFEF735FAB02397
:102718001B01009342466B461A719D715F71DD7112
:10272800201C6946FEF7FCF8201C80214900FEF7B2
:10273800F3F9201C80218900FEF7EEF9201C311CDA
:10274800FEF7EAF902B004BC9046F0BD0004004868
:10275800012303700023044A83508122920083508E
:10276800C3229200835070471405000010B5C02999
:102778000CD18121890043585A1CC318DB245C7092
:10278800531C43508018DC23437015E0DB290CD11F
:102798008121890043585A1CC318DB245C70531CE0
:1027A80043508018DD23437006E08122920083584D
:1027B8005C1C8450C018417010BDC046F0B5474637
:1027C80080B40024C3239B00C4500023C326B60052
:1027D800DB24A446C025A84629E0CC182578DB2DA3
:1027E8001BD15C1C0C192578DC2D08D185596F1C70
:1027F800875145198227BF00ED1947462F71247864
:10280800DD2C08D18459651C855104198225AD0039
:10281800641967462771023309E085596F1C87518F
:10282800247845198227BF00ED192C710133934292
:10283800D3DBC3239B00C258C4239B00C25004BCF3
:102848009046F0BDF0B55F4656464D464446F0B456
:1028580083B02C4C2C49271C2C4EFF252C4A94461F
:1028680002239946012290463FE05A1CF35C9A469F
:10287800131C2B403B800378012B0FD15346C02BF0
:1028880002D14246027030E042466346C250C52338
:102898009B005246C2544B46037026E0022B24D1BB
:1028A800624682580192FF2A02D9434603701CE00F
:1028B8005246C02A09D101230370C5239B00C118C1
:1028C800019AFFF77BFF012014E0019A9346012249
:1028D80093445A466346C250019BC218C4239B00C6
:1028E800D218534613714A46027023880A889342C5
:1028F800BBD1002003B03CBC90469946A246AB46EB
:10290800F0BDC046CE070020D2070020180D0020D9
:1029180014050000012281239B00C250C02343708C
:102928007047C046812189004258531C4350821881
:10293800C02151708222920083507047F0B54746FB
:1029480080B480460D1C141CFFF7E4FF06E06F1CE2
:1029580029784046FFF70AFF341C3D1C661E002CF0
:10296800F5D14046FFF7DEFF04BC9046F0BDC046F7
:1029780070B5051CFFF7E2FF00248226B60004E0CC
:102988002B19587801F09CFB0134A859A042F7D8BC
:1029980070BDC04608B50C4B18680C4901F0FEFB29
:1029A80001380B4B98420DD80A4B58600A4A106AF6
:1029B8000002000AC02109060143116200229A6040
:1029C80007221A6008BDC0461C000020102700001E
:1029D800FFFFFF0010E000E000ED00E00022014BE7
:1029E8001A607047E8070020014B18687047C04616
:1029F800E8070020064B1B68002B03D0044B1A681D
:102A0800013A1A60034B1A6801321A607047C046CF
:102A1800E4070020E807002008B5FFF7EBFF08BD32
:102A280010B58CB001200121FEF72CFA134C201CA4
:102A3800FDF772FD01A8FDF79FFE114B0193114BA5
:102A480002930023039306220492059380220692A0
:102A5800520007928022D2000892202209928022F6
:102A680092010A920B93201C01A9FDF7D1FD201CAD
:102A78000121FDF78FFE0CB010BDC04608000240D2
:102A88004024014028070020F0B589B06846FDF7CA
:102A9800D5FF404C201CFDF7ABFB802080020121B4
:102AA800FEF7F0F98020C0020121FEF7EBF9802043
:102AB80000030121FEF7E6F98027BF00381C012139
:102AC800FEF708FA3023009303256B461D71002694
:102AD800DE7131486946FDF723FF00956B461D718D
:102AE800DE712E486946FDF71BFF122300936B46E3
:102AF8001D71DE719020C0056946FDF711FF02AD1A
:102B0800281CFDF7FDFB0823029301232B71AE60FF
:102B18002E6104236B61201C291CFDF785FB201CFA
:102B28008021C9010522FDF713FC201C8021090220
:102B38000522FDF70DFC201C10210522FDF708FCDD
:102B4800201C802149000522FDF702FC201C391CAD
:102B58000522FDF7FDFB201C02210522FDF7F8FBED
:102B6800201CFDF71DFC201C0221FDF777FC201C12
:102B78000121FDF74FFC201C0121FDF7C9FB201C9A
:102B88000121FDF783FC0028F9D00248FDF72EFC4F
:102B980009B0F0BD002401400008004800040048C6
:102BA80038B5041C524880210901FDF7B5FF201CE7
:102BB8000021FFF703F9002800D198E0201C00212C
:102BC800FFF7CAF8C3175B0FC01807240440E41ABC
:102BD8000FD1474D281C80218900FDF79DFF281C37
:102BE80080210901FDF798FF281C80214900FDF785
:102BF80093FF012C0FD13E4D281C80218900FDF741
:102C08008BFF281C80210901FDF786FF281C8021E5
:102C18004900FDF7B1FF022C0FD1354D281C80214A
:102C28008900FDF779FF281C80210901FDF7A4FF21
:102C3800281C80214900FDF76FFF032C0FD12C4D74
:102C4800281C80218900FDF767FF281C80210901C5
:102C5800FDF792FF281C80214900FDF78DFF042C09
:102C68000FD1234D281C80218900FDF785FF281CE2
:102C780080210901FDF750FF281C80214900FDF73C
:102C88004BFF052C0FD11A4D281C80218900FDF718
:102C980073FF281C80210901FDF73EFF281C8021B5
:102CA8004900FDF769FF062C0FD1114D281C802122
:102CB8008900FDF761FF281C80210901FDF75CFFF1
:102CC800281C80214900FDF727FF072C0FD1084C4D
:102CD800201C80218900FDF74FFF201C802109015D
:102CE800FDF74AFF201C80214900FDF745FF38BD4C
:102CF8000004004870B586B00023284A28480021FF
:102D080001E0C15401339342FBDDFFF767FE002465
:102D1800FA256D0014E0FFF767FEA84210D9FFF707
:102D28005DFE661C01A81F49221C01F065FB011C01
:102D380001A80122152301F001F901F0D7F8341C8C
:102D4800622CE8DD0023154A1548002101E0C15432
:102D580001339342FBDD01AC134B251C07CB07C5A0
:102D68001E682E609A88AA809B79AB71201C12215C
:102D78000122152301F0E2F80C4B221C43CB43C27D
:102D880003CB03C21B881380201C152101222B238F
:102D980001F0D4F801F0AAF8FEE7C046FF030000EE
:102DA80018080020C44C0008DC4C0008F04C00084F
:102DB80008B5012805D1034B994202D10248FFF713
:102DC800C7FC08BDFFFF0000F001002030B583B04C
:102DD800FFF726FEFFF758FE6846FDF72FFE802016
:102DE80080020121FEF74EF88020C0020121FEF783
:102DF80049F8802000030121FEF744F8F423DB00A2
:102E0800009300256B461D710124DC719020C005DC
:102E18006946FDF785FDE0231B0200936B461D7193
:102E2800DC7107486946FDF77BFDC02300936B46BC
:102E38001D71DC7103486946FDF772FD03B030BDB2
:102E4800000400480008004830B589B0DC4B1B6816
:102E5800002B00D181E001A8DA49FFF7E7F8DA4B47
:102E68001D68182001F086F9041C291CFEF7BAFC1D
:102E78002378032B03D1032201AB1A7312E00298C3
:102E880003990131890001F099FA002803D103223E
:102E980001AB1A7306E00290039A9300C450039B97
:102EA80001330393C94B1D68182001F063F9041C12
:102EB800291CFEF797FC2378032B03D1032201ABCF
:102EC8001A7312E0029803990131890001F076FA29
:102ED800002803D1032201AB1A7306E00290039A7B
:102EE8009300C450039B01330393B94B1D6818200A
:102EF80001F040F9041C291CFEF774FC2378032B0D
:102F080003D1032201AB1A7312E00298039901312D
:102F1800890001F053FA002803D1032201AB1A7388
:102F280006E00290039A9300C450039B0133039375
:102F3800A84C01A8211CFEF747FF0223FF33E25CDF
:102F4800A548211CFFF714FD01A8FFF783F800220C
:102F58009B4B1A6001A8FFF79DF8A04B1B68002B3C
:102F680000D181E001A89E49FFF760F89D4B1D68DC
:102F7800182001F0FFF8041C291CFEF733FC237805
:102F8800032B03D1032201AB1A7312E002980399B1
:102F98000131890001F012FA002803D1032201ABA4
:102FA8001A7306E00290039A9300C450039B0133FE
:102FB80003938D4B1D68182001F0DCF8041C291CB4
:102FC800FEF710FC2378032B03D1032201AB1A73FD
:102FD80012E0029803990131890001F0EFF9002805
:102FE80003D1032201AB1A7306E00290039A9300FF
:102FF800C450039B013303937C4B1D68182001F0D8
:10300800B9F8041C291CFEF7EDFB2378032B03D128
:10301800032201AB1A7312E0029803990131890067
:1030280001F0CCF9002803D1032201AB1A7306E0A2
:103038000290039A9300C450039B01330393654C99
:1030480001A8211CFEF7C0FE0223FF33E25C6248A0
:10305800211CFFF78DFC01A8FEF7FCFF00225F4B47
:103068001A6001A8FFF716F8614B1B68002B5ED0A9
:1030780001A86049FEF7DAFF5F4B1D68182001F0D0
:1030880079F8041C291CFEF7ADFB2378032B03D128
:10309800032201AB1A7312E00298039901318900E7
:1030A80001F08CF9002803D1032201AB1A7306E062
:1030B8000290039A9300C450039B013303934F4B30
:1030C8001D68182001F056F8041C291CFEF78AFB1D
:1030D8002378032B03D1032201AB1A7312E0029861
:1030E80003990131890001F069F9002803D103220D
:1030F80001AB1A7306E00290039A9300C450039B35
:1031080001330393334C01A8211CFEF75DFE022313
:10311800FF33E25C3048211CFFF72AFC01A8FEF7C8
:1031280099FF0022324B1A6001A8FEF7B3FF344B17
:103138001B68002B00D1AAE001A83249FEF776FFF0
:10314800314B1D68182001F015F8041C291CFEF7E6
:1031580049FB2378032B03D1032201AB1A7312E036
:10316800029803990131890001F028F9002803D158
:10317800032201AB1A7306E00290039A9300C4502D
:10318800039B01330393214B1D68182000F0F2FFC5
:10319800041C291CFEF726FB2378032B03D10322EA
:1031A80001AB1A733BE0029803990131890001F0E1
:1031B80005F900282CD1032201AB1A732FE0C04671
:1031C800C4070020084D000808080020F807002060
:1031D8001008002098000020F0010020C0070020FF
:1031E800104D00080408002014080020FC070020E7
:1031F800AC070020184D00080C080020F407002038
:10320800B4070020204D0008F0070020EC0700203C
:103218000290039A9300C450039B01330393994B84
:103228001D68182000F0A6FF041C291CFEF7DAFA16
:103238002378032B03D1032201AB1A7312E00298FF
:1032480003990131890001F0B9F8002803D103225C
:1032580001AB1A7306E00290039A9300C450039BD3
:1032680001330393884C01A8211CFEF7ADFD02230E
:10327800FF33E25C8548211CFFF77AFB01A8FEF7C3
:10328800E9FE0022824B1A6001A8FEF703FF814B7A
:103298001B68002B39D001A87F49FEF7C7FE18200C
:1032A80000F068FF041C0121FEF79CFA2378032B29
:1032B80003D1032201AB1A7312E00298039901317A
:1032C800890001F07BF8002803D1032201AB1A73AF
:1032D80006E00290039A9300C450039B01330393C2
:1032E800694C01A8211CFEF76FFD0223FF33E25C45
:1032F8006648211CFFF73CFB01A8FEF7ABFE002245
:10330800644B1A6001A8FEF7C5FE644B1B68002BCE
:1033180039D001A86249FEF789FE182000F02AFF7B
:10332800041C0121FEF75EFA2378032B03D1032244
:1033380001AB1A7312E0029803990131890001F078
:103348003DF8002803D1032201AB1A7306E002906E
:10335800039A9300C450039B013303934A4C01A87A
:10336800211CFEF731FD0223FF33E25C4748211C94
:10337800FFF7FEFA01A8FEF76DFE0022474B1A6020
:1033880001A8FEF787FE474B1B68002B39D001A820
:103398004549FEF74BFE182000F0ECFE041C012105
:1033A800FEF720FA2378032B03D1032201AB1A730B
:1033B80012E0029803990131890000F0FFFF00280C
:1033C80003D1032201AB1A7306E00290039A93001B
:1033D800C450039B013303932B4C01A8211CFEF717
:1033E800F3FC0223FF33E25C2848211CFFF7C0FAF4
:1033F80001A8FEF72FFE00222A4B1A6001A8FEF74B
:1034080049FE2A4B1B68002B39D001A82849FEF732
:103418000DFE182000F0AEFE041C0121FEF7E2F9B3
:103428002378032B03D1032201AB1A7312E002980D
:1034380003990131890000F0C1FF002803D103225C
:1034480001AB1A7306E00290039A9300C450039BE1
:10345800013303930C4C01A8211CFEF7B5FC022391
:10346800FF33E25C0948211CFFF782FA01A8FEF746
:10347800F1FD00220D4B1A6001A8FEF70BFE09B002
:1034880030BDC0460008002098000020F001002050
:10349800B4070020B0070020284D0008B807002016
:1034A800304D0008C8070020384D0008BC07002030
:1034B800404D000808B59020C0052021FDF7CAFA44
:1034C80064234242504140420340384A13709020DE
:1034D800C0058021FDF7BEFA6423424250414042B4
:1034E8000340324A53709020C00580214900FDF7FF
:1034F800B1FA642342425041404203402B4A937040
:103508009020C00580218900FDF7A4FA6423424277
:10351800504140420340254AD3709020C005802185
:10352800C900FDF797FA64234242504140420340E4
:103538001E4A13711E4880218901FDF78BFA642306
:103548004242504140420340184A53711848802172
:10355800C901FDF77FFA64234242504140420340CB
:10356800124A9371124880210902FDF773FA642305
:1035780042425041404203400C4AD3710D48402119
:10358800FDF768FA64234242504140420340074A2B
:10359800137208488021FDF75DFA642342425041C6
:1035A80040420340014A537208BDC0460807002044
:1035B800000400480008004830B510480168104B66
:1035C8001D78104C1A224A4315555D78A21855707B
:1035D8009C789470DC78D4701C7914715C7954717F
:1035E8009C799471DC79D4711C7A14725B7A537269
:1035F800013103231940016030BDC046E8010020B5
:10360800080700203C070020F0B5474680B488B082
:10361800FFF7D2FF00247D4E371C351CEFE0335DE9
:10362800002B72D03B199B7E002B6ED02B193433A4
:103638001B78002B69D0754B1B194E331B78002B58
:1036480063D0734B1B5D002B5FD101A87149FEF756
:10365800EDFC182000F08EFD8046211CFEF7C2F814
:1036680041460B78032B03D1032201AB1A7313E0F5
:10367800029803990131890000F0A0FE002803D1C7
:10368800032201AB1A7307E00290039A93004146A4
:10369800C150039B01330393182000F06BFD804653
:1036A8006421FEF79FF842461378032B03D10322C7
:1036B80001AB1A7313E0029803990131890000F0F5
:1036C8007DFE002803D1032201AB1A7307E00290A4
:1036D80003998B004246C250039B013303934E4B20
:1036E800984601A8191CFEF76FFB0223FF334146D9
:1036F800CA5C4A48FFF73CF901A8FEF7ABFC642214
:10370800434B1A5501A8FEF7C5FC404B1B5D002B27
:1037180074D13E4B1B199B7E002B6FD13B4B1B1961
:1037280034331B78002B69D1384B1B194E331B7867
:10373800002B63D1364B1B5D002B5FD001A83549A8
:10374800FEF774FC182000F015FD8046211CFEF7DA
:1037580049F842461378032B03D1032201AB1A73AD
:1037680013E0029803990131890000F027FE002830
:1037780003D1032201AB1A7307E0029003998B006F
:103788004246C250039B01330393182000F0F2FC19
:1037980080460021FEF726F841460B78032B03D11B
:1037A800032201AB1A7313E00298039901318900CF
:1037B80000F004FE002803D1032201AB1A7307E0CE
:1037C8000290039A93004146C150039B013303932F
:1037D800114A904601A8111CFEF7F6FA0223FF339E
:1037E8004146CA5C0D48FFF7C3F801A8FEF732FC52
:1037F8000022074B1A5501A8FEF74CFC0134092C8E
:1038080000D80CE708B004BC9046F0BD3C07002087
:10381800C4010020504D000898000020F00100204D
:1038280008B50220FCF7F8FF012810D10220FDF7A7
:1038380065F8074A1188074B196151881960918802
:103848005960D188D9601189996052895A6108BD37
:1038580028070020A001002010B588B04E4B5B69F6
:10386800632B04D84D4A127800204D498854E12230
:103878009200934204D9494A127801204849885451
:10388800464A11780131012001401170444A1178EB
:10389800527891427DD1632B3AD8424B1B78002B4A
:1038A80036D000223F4B1A7001A83F49FEF7BEFBF5
:1038B800182000F05FFC041C0121FDF79BFF237812
:1038C800032B03D1032201AB1A7312E00298039968
:1038D8000131890000F072FD002803D1032201ABF9
:1038E8001A7306E00290039A9300C450039B0133B5
:1038F80003932E4C01A8211CFEF766FA0223FF331E
:10390800E25C2B48211CFFF733F801A8FEF7C2FB45
:10391800214B5A69E1239B009A423AD9214B1B78E3
:10392800002B36D101221F4B1A7001A81E49FEF741
:103938007DFB182000F01EFC041C0021FDF75AFF37
:103948002378032B03D1032201AB1A7312E00298E8
:1039580003990131890000F031FD002803D10322C9
:1039680001AB1A7306E00290039A9300C450039BBC
:10397800013303930D4C01A8211CFEF725FA0223FD
:10398800FF33E25C0A48211CFEF7F2FF01A8FEF7AC
:1039980081FB08B010BDC046A00100209C0100209A
:1039A800C0010020A4070020584D000898000020FE
:1039B800F0010020F0B58DB005A8FEF743FBFEF737
:1039C80085FE764880210901FDF7D6F8FEF7E2FF6B
:1039D800FFF704F8F426FF36704D8024240103E035
:1039E800281C211CFDF7C8F8FEF7FEFFB042F7D9E6
:1039F800FEF7F4FFF426FF36684D8024240103E027
:103A0800281C211CFDF7B8F8FEF7EEFFB042F7D9E5
:103A1800FEF7E4FFF426FF36604D8024240103E01E
:103A2800281C211CFDF7A8F8FEF7DEFFB042F7D9E5
:103A3800FEF7D4FF594C201C80218900FDF76CF853
:103A4800201C80210901FDF767F8201C802149000E
:103A5800FDF762F800F08AFAFFF7B8F9002000F0E5
:103A6800BDF868464E49002200F0C6FC011C6846B5
:103A78000822342300F062FA00F038FAFEF7AEFFAD
:103A88000025484E341C83239B00F718301CFEF792
:103A9800D9FE002824D0C4239B00E25805A8391C6D
:103AA800FEF7E2FD05A8FEF741F9002815D105A8A3
:103AB8003D490022FEF706F900280AD005A8FEF7BE
:103AC800C9FAFEF78BFF394C364D83239B00EE185D
:103AD8002AE005A8FEF7BEFA02E005A8FEF7BAFA42
:103AE800FEF782FF324B9842D0D9FEF777FF68463F
:103AF8002B492A1C00F080FC011C6223E80FDA170E
:103B0800AB4250412D1868460822342300F016FABB
:103B180000F0ECF9BAE75A1C2649C85CFF231A40A2
:103B2800224B1A8000F0DEF82388234A1288934239
:103B3800F1D1FFF789F91B48FEF784FE00281ED053
:103B4800C4239B00EA5805A8311CFEF78DFD05A883
:103B5800FEF7ECF800280FD105A81849184A0023E9
:103B6800FEF7BEF805A81749174A0023FEF7B8F86C
:103B780005A8FEF76FFA02E005A8FEF76BFAFFF753
:103B880099FCFFF741FDFFF767FEFFF749FEFEF7D7
:103B98002BFF3228C8D9FEF721FFC5E700040048EB
:103BA8005C4D0008F00100206C4D0008CC07002097
:103BB800DC050000180C0020D0070020744D000818
:103BC800A92B00087C4D0008FD2C000808B5012031
:103BD8000149FFF7EDF808BDFFFF00000023084A80
:103BE8001360084A1360084A1360084A1360084AB9
:103BF8001360084A1360084A1370084B186070472E
:103C080024070020A8070020EC010020E001002084
:103C1800E4010020BC01002094000020B80100202D
:103C280010B50124044B1C60044B1960044B1A6046
:103C3800044B186010BDC046C007002014080020BF
:103C4800FC0700200408002010B50124044B1C6068
:103C5800044B1960044B1A60044B186010BDC04631
:103C6800C4070020F80700201008002008080020DA
:103C78000122014B1A607047BC0700200122014B4A
:103C88001A607047B00700200122014B1A60704784
:103C9800B807002010B50124044B1C60044B1960C0
:103CA800044B1A60044B186010BDC046B4070020CE
:103CB800EC07002000080020F00700200122034B39
:103CC8001A60034B1860034B19607047AC0700205B
:103CD8000C080020F40700200122014B1A607047ED
:103CE800B807002010B5041C3E4B1A681B78002B3F
:103CF80001D0F72875D1230633D5231EEF2B01DC1D
:103D0800F0232340803B7C2B6BD89B003649CB5853
:103D18009F460222354B1A600022354B1A60354BFC
:103D28001C605EE00122314B1A600022304B1A60A1
:103D3800304B1C6055E0FF231A432A4B1A6050E0B1
:103D4800FF239A43274B1A604BE0FFF791FF48E0A7
:103D5800FFF794FF45E0FFF7BFFF42E0FFF794FF4E
:103D68003FE0234A136801331360204A12689342E4
:103D780035D1204B1B680F2018400130EF2B01DC98
:103D8800F02213401C4A1268002A03D0904201D046
:103D9800EF2B21DD902B08D002DC802B0DD01BE00F
:103DA800B02B10D0C02B14D016E0002C05D0134B2C
:103DB8001968221CFFF748FF0EE0104B1968221CF7
:103DC800FFF72EFF08E00D4B1968221CFFF762FF72
:103DD80002E0211CFFF772FF0022054B1A60074B17
:103DE8001C6010BD24070020884D0008E401002055
:103DF800A8070020EC010020B8010020E001002005
:103E08007047C0467F23194093065B0FDB015918A2
:103E1800094B5B5C002806D0072002400120904037
:103E28000343DAB205E007200240012090408343B3
:103E38001A1C014B5A54704718080020F8B54F4611
:103E48004646C0B489469046002587003F18144E60
:103E58001FE07B19F35C2341DA0709D54B46591952
:103E6800C9B243461A19D2B20120FFF7CBFF08E0C6
:103E78004A465119C9B243461A19D2B20020FFF76F
:103E8800C1FF0134E4B200E00024072CE1D9013578
:103E9800EDB2042DF8D905200CBC90469946F8BD22
:103EA8007C4F000808B5002806D09020C005802166
:103EB800C900FCF731FE05E09020C0058021C9004B
:103EC800FCF75AFE08BDC04608B5002806D0902069
:103ED800C00580218900FCF71FFE05E09020C00581
:103EE80080218900FCF748FE08BDC046F8B50120CE
:103EF800FFF7D8FF0120FFF7E7FF0020FFF7D2FF09
:103F080000250B4F0B4E0C4C0BE0715D201CFDF790
:103F180059F8201C8021FDF76DF80028F9D10135EA
:103F2800ADB2BD42F1D90120FFF7BCFFF8BDC046D4
:103F3800FF0300001808002000300140F0B5474694
:103F480080B480460E1C151C0024DFB208E04346EE
:103F5800185DE9B23A1CFFF771FF451901350134C4
:103F6800B442F4DB04BC9046F0BDC046F0B55F46F1
:103F780056464D464446F0B48BB002AC201CFCF7C4
:103F88005DFD04A8FDF742F98025AD02281C01213A
:103F9800FCF778FF281C0121FCF7C4FF9026F605E2
:103FA800301C02210122FCF717FE301C03210122DC
:103FB800FCF712FE0C239846029303239B46637179
:103FC80002239A4623710025A5710127E771301C49
:103FD800211CFCF7A5FC344B049305950695079521
:103FE800099543460893314B9846181C04A9FDF7D8
:103FF80037F82F4B99464046191C0122FDF794F9D2
:1040080001AE1C2333707570B770301CFCF72EFEA0
:1040180040460121FDF706F9201CFCF70FFD04A816
:10402800FDF7F4F88020C0020121FCF72BFF802067
:10403800C0010121FCF74EFF1E4B9846181C0721B2
:104048000022FCF7C9FD802302935B466371534647
:104058002371A571E7714046211CFCF761FC164BE2
:104068000493059506950795099504230893134C21
:10407800201C04A9FCF7F4FF201C49460122FDF787
:1040880053F91B2333707570B770301CFCF7EEFDC5
:10409800201C0121FDF7C6F80BB03CBC90469946A0
:1040A800A246AB46F0BDC04620A107000044004030
:1040B8000501050000040048127A0000003801409C
:1040C80038B5051C054C201C8021FDF7AFF90028E8
:1040D800F9D00248291CFDF7D7F838BD0044004044
:1040E80038B509480949FDF715FA00280BD0084CDE
:1040F80025880548FDF7F6F8064B585523880133FF
:10410800FF221340238038BD00440040050105000C
:10411800D2070020180D002038B50E48802149002C
:10412800FCF72AFD0C480D49FDF7F4F900280BD0DF
:104138000B4C25880848FDF7D5F80A4B58552388B5
:104148000133FF2213402380024880214900FCF7F5
:10415800E3FC38BD000400480038014005010500B3
:10416800D0070020180C002008B5002801D000F066
:1041780075F808BD10B5041E02D1012400E0984767
:10418800201C00F061F8002805D1034B1B68002BA8
:10419800F5D1FDF74BFA10BDD4070020002934D023
:1041A8000123002210B488422CD301242407A14201
:1041B80004D2814202D209011B01F8E7E400A142BE
:1041C80004D2814202D249005B00F8E7884201D359
:1041D800401A1A434C08A04202D3001B5C08224331
:1041E8008C08A04202D3001B9C082243CC08A042A2
:1041F80002D3001BDC082243002803D01B0901D08E
:104208000909E3E7101C10BC7047002801D0002002
:10421800C04307B4024802A14018029003BDC0463B
:10422800190000000029F0D003B5FFF7B9FF0EBC54
:104238004243891A1847C0467047C046014B186860
:104248007047C0468000002008B5034B011C186861
:1042580000F060F808BDC0468000002008B5034B98
:10426800011C186800F00EF808BDC0468000002048
:1042780010B50023934203D0CC5CC4540133F9E752
:1042880010BD000030B5002940D004390B68002B60
:1042980000DAC9181E4A1368141C002B02D14B609F
:1042A800116033E099420FD208680A189A4205D182
:1042B80013685268C01808604A6000E04B602160CB
:1042C80024E08A4203D8131C5A68002AF9D11D68D1
:1042D8005C198C420BD1096869185818196090420A
:1042E80014D114685268091919605A600EE08C429A
:1042F80002D90C23036009E008680C18944203D122
:1043080014685268001908604A60596030BDC04698
:10431800DC07002070B50323CD1C9D430835061C1F
:104328000C2D01D20C2501E0002D3FDB8D423DD341
:10433800204B1C681A1C211C002913D00868431B39
:104348000DD40B2B02D90B60CC181EE08C4202D185
:10435800636813601AE0486860600C1C16E00C1C67
:104368004968E9E7144C2068002803D1301C00F0A4
:1043780031F82060301C291C00F02CF8431C15D0A3
:10438800C41C03239C4384420AD12560201C0B30A3
:104398000722231D9043C31A0BD05A42E25008E06B
:1043A800211A301C00F016F80130EED10C233360CE
:1043B800002070BDDC070020D807002008B50A1CC3
:1043C8000349031C0868191C00F066FB08BDC046B9
:1043D8008000002038B5074C0023051C081C23600A
:1043E800FDF728F9431C03D12368002B00D02B606C
:1043F80038BDC046E00700200EB400B59CB01DAB28
:1044080004CB822202A992008A810A4A02908A6019
:104418004A6101225242CA81074A086110681D9AFE
:10442800019300F09BF8029A002313701CB008BC9B
:1044380003B01847FFFFFF7F8000002002780B7849
:1044480001300131002A01D09A42F7D0D01A7047C2
:10445800031C0A7801311A700133002AF9D1704718
:104468000023C25C0133002AFBD1581E7047031C8D
:10447800002010B582420FD01C780878A04201D1E4
:10448800012A03D118780B78C01A05E0013A0028F0
:10449800F8D001330131EFE710BD0000F0B58D68A9
:1044A80085B0071C0C1C03920193AB4245D39022A4
:1044B8008B89D20013423DD06269032656430969AD
:1044C8002068F20F401A96190290021C01980132D6
:1044D80012187610964200D2161C381C5A050FD5B1
:1044E800311CFFF717FF051E13D0029A2169FFF749
:1044F800BFFEA289184B134080221343A38111E009
:10450800321C00F0C9FA051E0CD1381C2169FFF7CE
:10451800B9FE0C233B60A389402213430120A381E9
:10452800404217E0029B2561ED1825606661019DF8
:10453800F61AA6600198A84200D2019D2A1C20689C
:10454800039900F090FAA2680020531BA360236827
:104558005D19256005B0F0BD7FFBFFFFF0B59FB08A
:10456800039005938B890E1C171C19060FD5326909
:10457800002A0CD14021FFF7CDFE306030610028C1
:1045880003D103990C230B60C9E04023736106AD86
:1045980000236B6120236B763023AB763C1C237899
:1045A800002B03D1E21B029211D003E0252BF9D096
:1045B8000134F4E70398311C3A1C029BFFF76EFFA5
:1045C800013000D1A6E06969029A8B186B612378E3
:1045D800002B00D19EE0012252426A606A46002305
:1045E8005B3201342B60EB60AB601370AB654E4FF0
:1045F8002178381C052200F02BFA002807D0C71BA9
:104608002B680120B840184328600134EFE72B6875
:10461800D90603D56A4620215B3211701A0703D5E3
:104628006A462B215B32117022782A2A01D0099B15
:104638000EE0059A111D12680591002A01DB099206
:1046480004E05242EA60022213432B60013409E07D
:104658002278303A092A04D80A214B4301349B189E
:10466800F6E7099323782E2B18D163782A2B09D1E2
:10467800059B02341A1D1B680592002B0DDA0123D5
:104688005B420AE0013400232278303A092A04D830
:104698000A214B4301349B18F6E70793234F2178EF
:1046A800381C032200F0D4F9002806D0C71B2B6859
:1046B8004020B84018432860013421781C4806225D
:1046C800671C297600F0C4F9002812D0194B002B7A
:1046D80006D1059B0722073393430833059314E05B
:1046E80005AB00930398291C321C134B00E000BF54
:1046F80007E005AB00930398291C321C0E4B00F011
:1047080091F804900499013104D06A690499531806
:104718006B6143E7B3895A0601D40B9801E0012085
:1047280040421FB0F0BDC0467A54000880540008CB
:104738008454000800000000A5440008F7B5151CC3
:1047480001930A698B68061C0C1C934200DA131C3F
:10475800221C2B6043321278002A01D001332B60CF
:104768002068800602D52B6802332B602168062753
:104778000F401FD0231C43331B785A1E93412268D5
:1047880092061FD5E11840313020C870211C5A1CF0
:1047980045310978A21840320233D17012E0221C48
:1047A800301C019919320123089FB847013011D0F4
:1047B800009F01370097E0682968009F431A9F42CD
:1047C800EDDBD7E7221C301C01994332089FB8471C
:1047D800013002D10120404223E0206806212B68E5
:1047E800E26801400025042903D1D51AEB43DB1701
:1047F8001D40A26823699A4201DDD31AED180027EB
:104808000097009FAF420BDA221C301C01991A3224
:104818000123089FB8470130DCD0009F0137EFE73C
:104828000020FEBDF0B50D1C8BB0433506920590F7
:10483800079304950B7E0C1C109A6E2B00D1A7E0F1
:1048480011D8632B22D009D8002B00D1B0E0582B07
:1048580000D0C0E045310B707B4D4EE0642B1CD07E
:10486800692B1AD0B7E0732B00D1A5E009D86F2BBC
:1048780029D0702B00D0AEE00E68202333430B60A4
:1048880036E0752B1FD0782B32D0A4E013680D1CAE
:10489800191D423511601B689FE0216813680E06D8
:1048A80003D5191D11601E6805E04806F9D5191DC4
:1048B800116000215E5E644B002E3BDA049D2D22C0
:1048C80076422A7036E0216813680E0603D5191D52
:1048D80011601E6804E04806F9D5191D1E8811608C
:1048E800594B227E039308276F2A1ED00A271CE003
:1048F800231C78214533554D197011682368081D0C
:10490800039510601E0601D50E6802E05806FBD517
:104918000E88D90702D52022134323601027002EC2
:1049280003D1226820239A432260231C00224333A8
:104938001A7001E003930A276368A360002B03DB66
:104948002568042295432560002E02D1049D002B82
:104958000ED0049D301C391CFFF764FC0398013D00
:10496800435C301C2B70391CFFF718FC061EF1D174
:10497800082F09D12168C90706D5626823699A42B8
:1049880002DC013D30232B70049E731B23612AE057
:10499800086813684969050604D5181D10601B6866
:1049A800196005E04606F8D5181D10601B681980C7
:1049B80000232361049D16E01368191D11601D680A
:1049C800281CFFF74DFD63682061984200D92361D8
:1049D8002069606004E0251C42352B7001232361A7
:1049E800049E00233370079E05980096211C09AA8F
:1049F800069BFFF7A3FE013002D10120404221E0CF
:104A08002A1C059806992369079DA8470130F4D008
:104A18002668B60705D4099BE068984212DA181C84
:104A280010E00025E0680999431A9D42F3DA221C38
:104A38000598069919320123079EB0470130DCD04A
:104A48000135EFE70BB0F0BD8B5400089C5400080B
:104A5800C9B28218904204D003788B4202D0013048
:104A6800F8E70020704770B5814201D300230CE0BD
:104A78008C18A042FAD28518131C013B0BD3514263
:104A88006618F65C6918CE54F7E7934203D0CC5CFD
:104A9800C4540133F9E770BDF8B5061C0C1C151C8D
:104AA800002904D1111CFFF735FC041C18E0002A6A
:104AB80003D1FFF7E7FB2C1C12E000F013F8A84223
:104AC8000ED2301C291CFFF725FC071E07D0211C1D
:104AD8002A1CFFF7CDFB301C211CFFF7D3FB3C1C25
:104AE800201CF8BD04390B68181F002B02DAC858BF
:104AF8001B18181F704700002E2E2F7379737465CA
:104B08006D2F7372632F73746D333266302D737427
:104B1800647065726970682F73746D3332663078AB
:104B2800785F6164632E63002E2E2F73797374652A
:104B38006D2F7372632F73746D333266302D7374F7
:104B4800647065726970682F73746D33326630787B
:104B5800785F646D612E63002E2E2F7379737465F0
:104B68006D2F7372632F73746D333266302D7374C7
:104B7800647065726970682F73746D33326630784B
:104B8800785F6770696F2E63000000002E2E2F7308
:104B9800797374656D2F7372632F73746D33326616
:104BA800302D7374647065726970682F73746D3317
:104BB80032663078785F6D6973632E630000000099
:104BC8002E2E2F73797374656D2F7372632F737420
:104BD8006D333266302D7374647065726970682F36
:104BE80073746D3332663078785F7263632E630056
:104BF8002E2E2F73797374656D2F7372632F7374F0
:104C08006D333266302D7374647065726970682F05
:104C180073746D3332663078785F7370692E630011
:104C28002E2E2F73797374656D2F7372632F7374BF
:104C38006D333266302D7374647065726970682FD5
:104C480073746D3332663078785F75736172742E61
:104C580063000000D2240008A8250008702200087C
:104C6800A8250008B8210008A8250008A8250008DC
:104C780002210008A8250008A8250008A825000882
:104C8800A8250008A8250008A8250008A8250008C8
:104C9800A8250008A82500083C240008342300089B
:104CA800C8250008D2250008E2250008F2250008DA
:104CB80004260008222600082C260008536875746C
:104CC80074696E6720646F776E3A20256420252505
:104CD8000000000053687574646F776E20636F6D11
:104CE800706C6574652E00005361666520746F20D2
:104CF80072656D6F766520706F7765722E000000A3
:104D08002F6D6E6F6E0000002F6D6E6F666600006F
:104D18002F6D7063000000002F6D636300000000BA
:104D28002F6D7374617274002F6D73746F7000004F
:104D38002F6D636F6E7400002F6D73796E630000C2
:104D48002F6B6E6F627300002F6B65790000000097
:104D58002F6673007374617274696E673A202564F4
:104D6800202525002F726561647900002F6C656429
:104D7800000000002F73687574646F776E00000080
:104D88001A3D0008EA3D0008EA3D0008EA3D00082F
:104D9800EA3D0008EA3D0008EA3D0008EA3D00084F
:104DA800EA3D0008EA3D0008EA3D0008EA3D00083F
:104DB800EA3D0008EA3D0008EA3D0008EA3D00082F
:104DC8001A3D0008EA3D0008EA3D0008EA3D0008EF
:104DD800EA3D0008EA3D0008EA3D0008EA3D00080F
:104DE800EA3D0008EA3D0008EA3D0008EA3D0008FF
:104DF800EA3D0008EA3D0008EA3D0008EA3D0008EF
:104E08001A3D0008EA3D0008EA3D0008EA3D0008AE
:104E1800EA3D0008EA3D0008EA3D0008EA3D0008CE
:104E2800EA3D0008EA3D0008EA3D0008EA3D0008BE
:104E3800EA3D0008EA3D0008EA3D0008EA3D0008AE
:104E48001A3D0008EA3D0008EA3D0008EA3D00086E
:104E5800EA3D0008EA3D0008EA3D0008EA3D00088E
:104E6800EA3D0008EA3D0008EA3D0008EA3D00087E
:104E7800EA3D0008EA3D0008EA3D0008EA3D00086E
:104E88002C3D0008EA3D0008EA3D0008EA3D00081C
:104E9800EA3D0008EA3D0008EA3D0008EA3D00084E
:104EA800EA3D0008EA3D0008EA3D0008EA3D00083E
:104EB800EA3D0008EA3D0008EA3D0008EA3D00082E
:104EC8002C3D0008EA3D0008EA3D0008EA3D0008DC
:104ED800EA3D0008EA3D0008EA3D0008EA3D00080E
:104EE800EA3D0008EA3D0008EA3D0008EA3D0008FE
:104EF800EA3D0008EA3D0008EA3D0008EA3D0008EE
:104F08001A3D0008EA3D0008EA3D0008EA3D0008AD
:104F1800EA3D0008EA3D0008EA3D0008EA3D0008CD
:104F2800EA3D0008EA3D0008EA3D0008EA3D0008BD
:104F3800EA3D0008EA3D0008EA3D0008EA3D0008AD
:104F48003E3D0008EA3D00081A3D00082C3D0008D7
:104F5800EA3D0008EA3D0008EA3D0008483D00082F
:104F6800523D0008EA3D0008583D00085E3D000833
:104F7800643D000800000000003E5B4F5B3E3E6B56
:104F88004F6B3E1C3E7C3E1C183C7E3C181C577DDB
:104F9800571C1C5E7F5E1C00183C1800FFE7C3E727
:104FA800FF0018241800FFE7DBE7FF30483A060E39
:104FB8002629792926407F050507407F05253F5A80
:104FC8003CE73C5A7F3E1C1C08081C1C3E7F1422F0
:104FD8007F22145F5F005F5F06097F017F0066899B
:104FE800956A606060606094A2FFA29408047E04E1
:104FF8000810207E201008082A1C08081C2A080807
:105008001E101010100C1E0C1E0C30383E383006C6
:105018000E3E0E06000000000000005F00000007C2
:10502800000700147F147F14242A7F2A12231308F0
:10503800646236495620500008070300001C2241CC
:10504800000041221C002A1C7F1C2A08083E080870
:105058000080703000080808080800006060002020
:10506800100804023E5149453E00427F4000724903
:105078004949462141494D331814127F10274545A7
:1050880045393C4A494931412111090736494949BD
:1050980036464949291E000014000000403400002B
:1050A8000008142241141414141400412214080294
:1050B800015909063E415D594E7C1211127C7F4907
:1050C8004949363E414141227F4141413E7F49495C
:1050D80049417F090909013E414151737F08080888
:1050E8007F00417F41002040413F017F0814224159
:1050F8007F404040407F021C027F7F0408107F3EB3
:105108004141413E7F090909063E4151215E7F091F
:10511800192946264949493203017F01033F404086
:10512800403F1F2040201F3F4038403F6314081471
:105138006303047804036159494D43007F414141A9
:105148000204081020004141417F0402010204408A
:1051580040404040000307080020545478407F280E
:105168004444383844444428384444287F38545404
:10517800541800087E090218A4A49C787F08040427
:105188007800447D40002040403D007F10284400C6
:1051980000417F40007C047804787C080404783857
:1051A80044444438FC1824241818242418FC7C0887
:1051B800040408485454542404043F44243C404004
:1051C800207C1C2040201C3C4030403C44281028B7
:1051D800444C9090907C4464544C44000836410000
:1051E8000000770000004136080002010204023C7A
:1051F8002623263C1EA1A161123A4040207A385449
:1052080054555921555579412254547842215554C1
:10521800784020545579400C1E5272123955555514
:1052280059395454545939555454580000457C41FF
:105238000002457D420001457C407D1211127DF03F
:10524800282528F07C545545002054547C547C0A69
:10525800097F4932494949323A4444443A324A4832
:1052680048303A4141217A3A42402078009DA0A036
:105278007D3D4242423D3D4040403D3C24FF242488
:10528800487E4943662B2FFC2F2BFF0929F620C0A7
:10529800887E090320545479410000447D413048F8
:1052A800484A32384040227A007A0A0A727D0D193B
:1052B800317D2629292F28262929292630484D409D
:1052C80020380808080808080808382F10C8ACBA99
:1052D8002F102834FA00007B000008142A14222218
:1052E800142A1408AA005500AAAA55AA55AA00000B
:1052F80000FF00101010FF00141414FF001010FF1E
:1053080000FF1010F010F0141414FC001414F7002F
:10531800FF0000FF00FF1414F404FC141417101FFE
:1053280010101F101F1414141F00101010F000008C
:1053380000001F101010101F10101010F0100000A7
:1053480000FF101010101010101010FF10000000B7
:10535800FF140000FF00FF00001F10170000FC04EE
:10536800F414141710171414F404F40000FF00F7D1
:1053780014141414141414F700F714141417141034
:10538800101F101F141414F4141010F010F0000063
:105398001F101F0000001F14000000FC140000F084
:1053A80010F01010FF10FF141414FF141010101F29
:1053B80000000000F010FFFFFFFFFFF0F0F0F0F03A
:1053C800FFFFFF0000000000FFFF0F0F0F0F0F3857
:1053D80044443844FC4A4A4A347E02020606027EA5
:1053E800027E0263554941633844443C04407E20B0
:1053F8001E2006027E020299A5E7A5991C2A492AC1
:105408001C4C7201724C304A4D4D3030487848304F
:10541800BC625A463D3E494949007E0101017E2A47
:105428002A2A2A2A44445F444440514A444040447A
:105438004A51400000FF0103E080FF000008086BAC
:105448006B083612362436060F090F0600001818A6
:105458000000001010003040FF0101001F01011E74
:1054680000191D1712003C3C3C3C000000000000E5
:105478004300232D302B2000686C4C00656667457F
:1054880046470030313233343536373839414243B4
:105498004445460030313233343536373839616265
:0554A80063646566006D
:1054B00078563412000000000102030401020304C4
:1054C000060708099000002000000000006CDC02C4
:1054D00000000000000000000000000000000000CC
:1054E00000000000000000000000000000000000BC
:1054F00078540008000000000000000000000000D8
:10550000000000000000000000000000000000009B
:10551000000000000000000000000000000000008B
:10552000000000000000000000000000000000007B
:0855300020000020325476989F
:04000005080000C52A
:00000001FF
